:020000040800F2
:10000000483500209D010008573F00085B38000874
:10001000553F0008C5100008F54A00080000000020
:1000200000000000000000000000000005010008C2
:10003000C710000800000000490100084D470008F3
:10004000B7010008B7010008B7010008B7010008B0
:10005000B7010008B7010008B7010008B7010008A0
:10006000B7010008B7010008B7010008B701000890
:10007000B7010008B7010008B7010008B701000880
:10008000B7010008B7010008B7010008B701000870
:10009000B7010008B7010008B7010008B701000860
:1000A000B7010008DD470008B7010008B7010008E4
:1000B000B7010008B7010008B7010008B701000840
:1000C000B7010008B7010008B7010008B701000830
:1000D000B7010008DD4A0008B7010008E94A000836
:1000E000B7010008B7010008B7010008DFF810D019
:1000F00000F01CFD0048004775570008AFF3008072
:1001000048350020224B19680868B0E8F00F80F3EA
:100110000988BFF36F8F4FF0000080F311884EF015
:100120000D0E70470000000006480068006880F36C
:10013000088862B661B6BFF34F8FBFF36F8F00DFE1
:1001400000BF00BF08ED00E0EFF30980BFF36F8F41
:100150000F4B1A6820E9F00F106008B54FF0BF0090
:1001600080F31188BFF34F8FBFF36F8F06F062FCEF
:100170004FF0000080F31188BDE808401968086856
:10018000B0E8F00F80F30988BFF36F8F704700BFAE
:1001900068000020EFF305807047000006488047A4
:1001A00006480047FEE7FEE7FEE7FEE7FEE7FEE75C
:1001B000FEE7FEE7FEE7FEE7D9470008ED0000088E
:1001C000202A04DB203A21FA02F00021704721FAAC
:1001D00002F3D040C2F12002914008431946704713
:1001E000004870470482000810B50446FFF7F8FF86
:1001F0000068005D00F0010010BD40EA01039B07AC
:1002000003D009E008C9121F08C0042AFAD203E08B
:1002100011F8013B00F8013B521EF9D27047D2B2EF
:1002200001E000F8012B491EFBD270470022F6E7DF
:1002300010B513460A4604461946FFF7F0FF20465C
:1002400010BD30B505462A460B4612F8010B13F8CF
:10025000014B08B1A042F8D01CB1002802D06D1C9F
:10026000F1E7284630BD10B5044604E00B7800F8ED
:10027000013B03B1491C521EF8D2204610BDCAB240
:10028000401E10F8011F8A4202D00029F9D1002037
:100290007047421C10F8011B0029FBD1801A7047DF
:1002A000034611F8012B00F8012B002AF9D118465A
:1002B0007047F0B480EA0102D40F4200B2EB410F64
:1002C00002D20246084611464A0042D0C30DDDB2B2
:1002D000C1F3C752AD1A202D35DAC1F3160141F42E
:1002E000000204B15242C5F1200602FA06F12A4189
:1002F0001044B3EBD05F23D0C4B1012DA0EBC350A9
:1003000009DCF0BC4FF0004202EAC352DBB200F558
:10031000000000F012BA400000F1807000EBC35002
:10032000A0F1807040EAD170490009E0490841EA33
:10033000C071A0EBC35000F50000400800EBC350B3
:10034000F0BC00F0F1B96142012202EB4101001B57
:10035000F6E7F0BC704781F00041AAE780F000406A
:10036000A7E780EA010210B502F00043400022D066
:100370004A001FD0010E01EB1261C0F35600C2F318
:10038000560240F4000042F40002A0FB02200004E8
:100390007F39140400D0401C50EA124001D44000C0
:1003A000491EC2B20C0604EBD010401C4008802A43
:1003B00002D003E0002010BD20F00100002900DA87
:1003C0000020184310BD30B480EA010202F000455D
:1003D00030F0004221F0004013D090B1C30DD40D95
:1003E000C2F31601C0F31600E41A41F4000140F410
:1003F00000027D34914201D3641C00E04900002CCE
:1004000002DA30BC002070474FF400000023914214
:1004100001D3891A034340084FEA4101F7D151B192
:10042000914202D14FF0004105E002D24FF00101AC
:1004300001E06FF0010103EBC450284430BC00F030
:1004400073B92DE9FE4F81EA030404F0004421F062
:10045000004100944FF0000B23F0004350EA0104E8
:100460005ED052EA03045BD0C3F30A54C1F30A55C9
:100470002C44A4F2F3340194A0FB0254C1F3130101
:1004800041F48011C3F3130343F4801301FB0244CE
:1004900000FB034E840A970A44EA815447EA8357D3
:1004A000A4FB076802958D0A05FB07854FEA932C8C
:1004B00004FB0C542705029D4FEA065847EA1637FD
:1004C000B5EB08056EEB070C870E920E47EA811715
:1004D00042EA8312A7FB0201B6EB0B0164EB0004B6
:1004E0002B0D43EA0C335E1844EB1C50DA465146A0
:1004F000E7FB0201C5F313044FEA0B3343EA14533D
:100500004FEA0432019C43EA0603A4F10C0402946E
:10051000009CCDE900B400F04DF903B0BDE8F08FC8
:1005200000200146F9E796230022114600F005B9A4
:1005300000F0004220F00040C10DC0F3160040F46E
:1005400000007F2901DA00207047962903DCC1F101
:100550009601C84001E096398840002AF4D0404214
:10056000704720F00040C10DC0F3160040F40000B9
:100570007F2901DA00207047962903DCC1F196013A
:10058000C840704796398840704700F0004230F00C
:1005900000400AD0C10D01F56071C0F3160042EAB7
:1005A0000151C208400711437047002001467047BF
:1005B00001F0004330B421F0004150EA010206D0BE
:1005C0000A0DA2F56072C1F31301002A02DC30BCEF
:1005D00000207047440F44EAC104C100E01830BC59
:1005E00000EBC25000F0A0B8002801DBC0F10040D1
:1005F000002901DBC1F100418842704730B50B464C
:10060000014600202022012409E021FA02F59D4242
:1006100005D303FA02F5491B04FA02F52844151E16
:10062000A2F10102F1DC30BD2DE9F05F05460020AA
:1006300092469B4688460646814640241BE0284653
:10064000414647462246FFF7BBFD53465A46C01A6D
:10065000914110D311461846224600F079FA2D1A1E
:1006600067EB01084F4622460120002100F070FA96
:1006700017EB00094E41201EA4F10104DFDC4846BF
:1006800031462A464346BDE8F09F00000FB40023E0
:1006900000B589B00CA900910B996FF00042CB60B6
:1006A0001E4B06931E4B07930423CDE901321D4ACE
:1006B000089202466B46002000F000FB09B05DF88E
:1006C00014FB70B586B006464FF0FF300091CDE9BF
:1006D0000101002015460C4604903246694604A8E4
:1006E000FFF7D4FF02460498211825B108B1084647
:1006F00000E020462860049800280DD0002A02DD82
:100700000098884208D0081B0094CDE901043246C5
:10071000694604A8FFF7BAFF06B070BDF50E0008E1
:10072000130F0008E90100080029A8BF7047401C0A
:10073000490008BF20F00100704710B4B0FA80FCF7
:1007400000FA0CF050EA010404BF10BC704749B134
:10075000CCF1200421FA04F411FA0CF118BF0121A4
:1007600021430843A3EB0C01CB1D4FEA00614FEA84
:10077000102042BF002010BC704700EBC350104453
:100780000029A4BF10BC7047401C490008BF20F0DE
:10079000010010BC704710B5141E73F1000408DA94
:1007A000401C41F1000192185B411A4301D120F035
:1007B000010010BD2DE9F04D92469B4611B1B1FAF2
:1007C00081F202E0B0FA80F22032904600F0C0F9E7
:1007D00004460F4640EA0A0041EA0B0153465A46D6
:1007E000084313D0114653EA010019D0C8F1400262
:1007F0005046FFF7E5FC05460E4650465946424630
:1008000000F0A6F9084305D0012004E0204639464F
:10081000BDE8F08D0020054346EAE0762C433743DF
:100820000A986305E40AA0EB08000022FD0A44EAE6
:1008300047540A3002D500200146E9E701051019A6
:100840006941DDE9084500196941BDE8F04DA2E7BD
:100850002DE9FE4F804681EA0300C00F0C46009050
:1008600021F0004123F00045B8EB0200A94105D278
:100870004046214690461C460B46024623F0004067
:10088000104347D0270DC7F30A00C3F30A51029063
:10089000401A019040286BDAC3F3130040F4801B28
:1008A0000098924620B10023D2EB030A63EB0B0BB6
:1008B00001985946C0F14002504600F049F90646F9
:1008C0000D4650465946019A00F051F910EB0800C8
:1008D0006141002487EA115284EAE7731A4340D049
:1008E000009A62B3019A012A4FEA075215DC001BF5
:1008F00061EB02014FF0004202EA0752CDE90042EB
:10090000001C41F5801132462B46FFF753FF03B020
:10091000BDE8F08F40462146F9E7001B61EB02017C
:10092000001C41F5801300185B412018A2F5001748
:1009300047EB030140EAD570B6196D4111E06D082F
:100940004FEA360645EAC0754FEA0752001B61EBD5
:100950000201001C41F5801149084FEA30000019DE
:10096000514132462B4603B0BDE8F04FFFF713BFAD
:100970000098012240000023D0EB020263EBE073F9
:10098000009821464FEAE074B8EB000061EB0401E7
:10099000E9E783F000435BE781F0004158E72DE988
:1009A000F04D81EA030404F0004B21F000451446A9
:1009B0004FF0000A23F0004150EA050220D054EA2B
:1009C00001021DD0C5F30A570246C5F31303C1F354
:1009D0001300C1F30A5640F4801543F48013A7EBCB
:1009E0000608101BD64608F2FD3873EB050002D34B
:1009F00008F1010801E092185B41B8F1000F03DA39
:100A000000200146BDE8F08D00204FF4801106461D
:100A100084460EE0171B73EB050705D3121B63EB2F
:100A2000050306434CEA010C49084FEA30009218CE
:100A30005B4150EA0107EDD152EA030012D082EA8D
:100A4000040083EA0501084305D0101BAB4106D220
:100A50000122002306E000224FF0004302E06FF085
:100A6000010253101AEB06004CEB085110EB0A0080
:100A700041EB0B01BDE8F04DFFF78DBE70B521F0E5
:100A8000004303430CD0C1F30A550024D5EB040501
:100A900064EB0403D617AD1AB34102DB0020014614
:100AA00070BD201841EB025170BD0EB5C10F80EA38
:100AB000E0700844CA07002140F233438DE80E007D
:100AC0000A460B46FFF776FE03B000BDC1F30A529B
:100AD000C1F3130140F2FF3341F480119A4202DA6C
:100AE00000200146704740F233439A42A2F233425B
:100AF00002DC5242FFF764BB00F02AB830B5041E96
:100B000071F1000404DB4FF00044404264EB01014A
:100B1000141E73F1000405DB1C464FF000435242E3
:100B200063EB0403994208BF904230BD064C074D69
:100B300006E0E06840F0010394E8070098471034AD
:100B4000AC42F6D3FFF7D6FAC4820008E48200086C
:100B5000202A04DB203A00FA02F10020704791407D
:100B6000C2F1200320FA03F3194390407047202A72
:100B700006DBCB17203A41FA02F043EAE07306E0C5
:100B800041FA02F3D040C2F12002914008431946D5
:100B9000704700002DE9FF4F087883B09946FF2881
:100BA00005D0491C2D2804D00024002008E0002096
:100BB0000BE00124F9E700EB800003EB4000491C47
:100BC0000B78FF2BF7D104B1404200230293147835
:100BD00019461D462D2C01D02B2C04D1521C2D2C36
:100BE00013D000240294AA461478FF2C0FD00A25B3
:100BF000A3FB057801FB05814FF0000C03FB0C11F2
:100C0000521CE3194AEB0101EEE70124EAE78144B3
:100C100053EA010002D019F5C87F06DA03980021D3
:100C2000C0E9001107B0BDE8F08F0025AE4E2F4699
:100C3000DFF8B882184600F0CEF9CDE90001B9F12D
:100C4000000002DAC9F1000400E004460023A74ACC
:100C50001AEB030B42EB045A12E0E00707D02A46D6
:100C6000334638464146FFF7ECFB074688462A469E
:100C7000334610461946FFF7E4FB05460E4664105E
:100C8000002CEAD1DDE90001B9F1000F5A465346C4
:100C900006DAFFF784FE3A464346FFF780FE05E09A
:100CA000FFF7CFFB3A464346FFF7CBFB029A0AB168
:100CB00081F00041039AC2E90001B3E72DE9FF4F3B
:100CC0001F468DB0D7E901464FF0FF382E2045462C
:100CD0004FF000090B90B9696D1C0E988847396A6E
:100CE000824688470028F6D1BAF1FF3F0AD024F4A3
:100CF000D064002E11DDBAF12B0F08D0BAF12D0F00
:100D00000BD102E0404611B08DE744F48064B9692C
:100D10006D1C0E9888478246761E6946600501D58F
:100D20002D2000E02B208DF8000001F1010B0DF1CA
:100D3000200809E0B9696D1C0E98884782460F9813
:100D400044F40074761E0560002E02DDBAF1300F07
:100D5000F0D00B998A453ED144F0800406E00F990B
:100D6000681CA9F1010944F400740860B9696D1C9C
:100D7000761E0E98884782463028F0D02BE00B99DB
:100D80008A4505D1200603D444F08004761E18E07D
:100D9000504604F01DF908B30DF11301761E44F41A
:100DA00000748B4508D2AAF130000BF8010B200625
:100DB00007D5A9F1010003E0200602D409F10100E2
:100DC0008146A00502D50F99681C0860B9696D1CA1
:100DD0000E9888478246002ED1DC53E0002E51DD6C
:100DE000BAF1650F02D0BAF1450F4BD1A00549D534
:100DF000B9696D1C24F44074761E0E9888478246AB
:100E0000002E0CDD2B2804D0BAF12D0F07D144F4AD
:100E10008074B9696D1C0E9888478246761EE0057D
:100E200001D52D2100E02B2108F8011BCDF82C80E5
:100E300021E00DF12901761E44F4007488450CD29E
:100E4000AAF1300010F0FF0088F8000002D10B99E1
:100E5000884509D908F1010806E0E00501D52448D4
:100E600001E042F20F708146B9696D1C0E98884707
:100E700082460F980560002E04DD504604F0A8F865
:100E80000028D6D1F9690E988847FF208BF800001A
:100E900088F800000020069007904B466A4608A993
:100EA00006A8FFF777FEA00502D46FF001002AE73D
:100EB00014F0240F0AD0E00714D1DDE906123868D7
:100EC000031D3B600068C0E900120BE0DDE906018C
:100ED000FFF76EFB0146E00704D13868021D3A6057
:100EE0000068016028460EE7000014400000F03F53
:100EF000F1D8FFFF426842B1016811F8013B23B10C
:100F0000521EC0E90012184670470121C160881EB8
:100F1000704742685AB1C368016843B983688B421D
:100F200005D0491E521CC0E90012002070474FF046
:100F3000FF3070472DE9F04D00231A461B1A8A41F5
:100F400003DB00200146BDE8F08DC1F30A52C1F376
:100F5000130141F480154FF0000BD10702D10018A6
:100F60006D41521E0027044640F2FF11384601EB46
:100F7000620A3E468046024600204FF48011FFF789
:100F80001FF9C2197141BB1846EB0100B4EB030C09
:100F900075EB000C04D3E41A65EB000517460E460A
:100FA000241908F101006D4180463428E3DDF91968
:100FB00046EB0600091BA84103D24FF0FF3213464F
:100FC00001E0002213461BEB070046EB0A51BDE887
:100FD000F04DFFF7E0BB0EB540F233420292002223
:100FE000CDE900221346FFF7E5FB03B000BD00008A
:100FF00070B5044600688168C943C90717D1816884
:1010000021F00101816001F0C5FA05460AE000BF48
:1010100001F0C0FA401B022804D920688068C04350
:10102000C00706D020688068C043C007F0D0002009
:1010300070BDA06A40F01000A062E06A40F00100BC
:10104000E062012070BD0000F8B50026044600965D
:1010500000688168C943C9072DD0816841F001014A
:101060008160164816490068B0FBF1F000E0401EB0
:1010700000900028FBD101F08DFA054616E000BF74
:1010800001F088FA401B022810D920688068C0430C
:10109000C0070BD0A06A40F01000A062E06A40F0E8
:1010A0000100E06284F824600120F8BD20688068B7
:1010B000C043C007E4D10020F8BD000010000020AC
:1010C00040420F00FEE770472DE9F047A0B00C4604
:1010D000824680216846FFF7A9F801F05BFA0646D0
:1010E00043F69828012000F0E5FA40B14FF4FA7574
:1010F000284601F043F900F0E7F810B104E033A00E
:1011000051E037A003F0C8FD284601F037F93A4D09
:1011100000272F704FF4807949463848FFF786F84A
:1011200004B937A42346524636A1684603F0C4FDED
:10113000514639A003F0B0FD684600F03BFA444642
:101140003DE02878012837D12C4939A003F0A4FDCF
:101150003CA12A48FFF775F848B93EA12748FFF798
:1011600070F820B93EA12548FFF76BF880B135A192
:101170002248FFF766F820B936A12048FFF761F84A
:1011800030B138A003F088FD012020B0BDE8F08721
:101190003BA11A48FFF755F820B93BA11748FFF7C4
:1011A00050F820B13AA003F077FD0020EDE72F7052
:1011B00049461248FFF73AF80A2001F0DFF801F03B
:1011C000E9F9801BA042BCD339A0ECE75365742039
:1011D0004D6F6465204661696C6564210D0A0000ED
:1011E000456E61626C652044484350204661696CDD
:1011F0006564210D0A00000000000020CC000020E2
:101200000000000041542B43574A41503D222573B2
:10121000222C222573220000436F6E6E6563746971
:101220006E6720746F2025732E2E2E0D0A0000008D
:1012300057694669204C6F6F702052583A202573C9
:101240000D0A00005749464920434F4E4E4543542E
:10125000454400005749464920474F542049500013
:101260004F4B00005769466920436F6E6E6563748B
:1012700065642053756363657373210D0A00000074
:101280004552524F520000004641494C00000000B8
:101290005769466920436F6E6E65637420466169C5
:1012A0006C656420284552524F52292E0D0A0000C9
:1012B0005769466920436F6E6E6563742054696D8B
:1012C000656F7574210D0A0000231A4601A102A062
:1012D00000F096B94F4B000041542B43574448430C
:1012E000503D312C3100000010B5044600231A4651
:1012F0000FA110A000F084F920B911A11148FEF748
:10130000A0FF78B10F4910A003F0C6FC21460D489C
:1013100000F0EEF8002804D0214611A003F0BCFC38
:10132000012010BD12A003F0B7FC002010BD00008A
:101330004F4B000041542B434946535200000000DC
:101340002E000000CC00002050617273696E67208F
:1013500049502066726F6D3A2025730D0A00000017
:101360005061727365642049503A2025730D0A005C
:1013700047657420495020436D64204661696C655F
:10138000640D0A0010B50A4C0AA003F085FC002386
:101390001A4611A1204600F033F920B10FA003F046
:1013A0007BFC012010BD16A003F076FC002010BDD0
:1013B000108200082D2D2D205B4D5154545D20438B
:1013C0006F6E666967204175746820496E666F208C
:1013D0002D2D2D0D0A0000004F4B00002D2D2D202E
:1013E0005B4D5154545D20436F6E666967205375A1
:1013F000636365737321202D2D2D0D0A00000000FD
:101400002D2D2D205B4D5154545D20436F6E666928
:1014100067204661696C656421202D2D2D0D0A0021
:1014200010B50AA414A003F037FC00231A461CA12F
:10143000204600F0E5F820B11AA003F02DFC0120B1
:1014400010BD22A003F028FC002010BD41542B4DFC
:10145000515454434F4E4E3D302C226D7174747371
:101460002E6865636C6F7564732E636F6D222C310B
:101470003838332C310000002D2D2D205B4D515478
:10148000545D20436F6E6E656374696E6720746F80
:1014900020436C6F75642E2E2E202D2D2D0D0A00ED
:1014A0004F4B00002D2D2D205B4D5154545D20439A
:1014B0006F6E6E656374656420746F204F6E654E49
:1014C000455421202D2D2D0D0A0000002D2D2D20FD
:1014D0005B4D5154545D20436F6E6E6563742046BE
:1014E00061696C656421202D2D2D0D0A000000001E
:1014F0002DE9FF418846A8B3B8F1000F37D0044664
:1015000000256E4630E000BFFEF76AFE0168C95D47
:10151000202928D1002200950195029511460395B6
:1015200009E02E2B02D1521C032A0BDC7354491CF8
:10153000641C0F2906DA23780768FF5C202FF0D09F
:101540002E2BEED07554032A0DD16846FEF7A1FE6E
:10155000072808D369464046FEF7A2FE012004B0E2
:10156000BDE8F08103E0641C2778002FCCD1002077
:10157000F5E7000010B5044608A000F01BF840F69F
:10158000B83000F0FBFE07490020087022460346F1
:10159000BDE8104004A105A000F032B841542B5220
:1015A00053540000000000204F4B000041544530D0
:1015B0000000000010B504000ED001460BA003F09F
:1015C0006BFB2046FEF765FE82B24FF47A7321462C
:1015D000094802F0F4F808B1012010BD6423BDE809
:1015E0001040022205A1044802F0E9B854583A20FC
:1015F00025730D0A00000000500200200D0A0000B3
:101600002DE9F0471F4E044600201D4690468946AE
:1016100030704FF480711C48FEF708FE2046FFF73B
:10162000C9FF10B10020BDE8F08700F0B3FF044609
:1016300040F6B8370CE000BF00F0ACFF001BB8422A
:1016400003D912A003F028FBECE7012000F096FE7E
:1016500030780028F0D00C4912A003F01DFB494659
:101660000948FEF7EEFD0028DDD0B8F1000002D0F9
:101670000549FEF715FE15B10D48008828800120A8
:10168000D1E7000000000020CC00002054696D6507
:101690006F757421204E6F20726573706F6E736565
:1016A0002E0D0A0052583A2025730D0A0000000042
:1016B0000200002010B588B0044620216846FEF7DD
:1016C000B5FD224605A1684603F0F6FA00231A4646
:1016D00006A16846FFF794FF08B010BD41542B43A4
:1016E000574D4F44453D2564000000004F4B00001E
:1016F0000246002301A102A0FFF782BF4F4B00006A
:1017000041540000F0B5454C0546C1B037A620460F
:1017100043A103F0D1FA074695F91020E0194AA138
:1017200003F0CAFA074495F91120E0194CA103F01F
:10173000C3FA07442868FEF728FF04EB070C0246AB
:101740000B464DA1604603F0B7FA0744A868FEF7C0
:101750001CFF04EB070C02460B464EA1604603F04B
:10176000ABFA0744E868FEF7E3FE0246E0194FA132
:1017700003F0A2FA07446868FEF707FFE51902467E
:101780000B464FA1284603F097FAC519601952A1DC
:1017900003F092FA4419214650A003F07DFA1F4944
:1017A00054A003F079FA2346324658A1684603F064
:1017B00083FA00231A465CA16846FFF721FF01283F
:1017C00005D05AA003F068FA002041B0F0BDA2B2E3
:1017D0004FF47A7311495B4801F0F1FFC82005F01E
:1017E00075F859A003F058FA0120EEE724737973D5
:1017F0002F535651783337376348342F67617373EB
:101800007363616E2F7468696E672F70726F706595
:101810007274792F706F737400000000442D0020E3
:101820007B226964223A22313233222C227665727D
:1018300073696F6E223A22312E30222C227061722F
:10184000616D73223A7B00002274656D70223A7BD1
:101850002276616C7565223A25647D2C00000000BB
:101860002268756D6964223A7B2276616C75652207
:101870003A25647D2C000000226D71325F76616C28
:101880007565223A7B2276616C7565223A252E3386
:10189000667D2C00226368326F223A7B2276616C6F
:1018A0007565223A252E33667D2C000022636F3247
:1018B000223A7B2276616C7565223A25647D2C0084
:1018C0002274766F63223A7B2276616C7565223AC8
:1018D000252E33667D0000007D7D0000A1BE4A53A9
:1018E0004F4E204C656E677468A1BF3A2025640D89
:1018F0000A000000A1BE4A534F4E20436F6E74652C
:101900006E74A1BF3A2025730D0A000041542B4D7F
:101910005154545055425241573D302C2225732288
:101920002C25642C302C30004F4B0000A1BE45729A
:1019300072A1BF434D442048656164204661696CD3
:101940000D0A000050020020A1BE53756363657349
:1019500073A1BF506F7374204F4B0D0A000000003D
:10196000F0B5454C0D460246C1B036A6204643A10F
:1019700003F0A2F9074695F91020E0194BA103F0F6
:101980009BF9074495F91120E0194BA103F094F954
:1019900007442868FEF7F9FD04EB070C02460B46E6
:1019A00048A1604603F088F90744A868FEF7EDFDFA
:1019B00004EB070C02460B4647A1604603F07CF996
:1019C0000744E868FEF7B4FD0246E01946A103F0BB
:1019D00073F907446868FEF7D8FDE51902460B461F
:1019E00044A1284603F068F9C519601944A103F021
:1019F00063F94419204943A003F04EF923463246C7
:101A000046A1684603F058F900231A464AA16846E1
:101A1000FFF7F6FD012805D048A003F03DF90020AE
:101A200041B0F0BDA2B24FF47A7313494B4801F0B4
:101A3000C6FEC82004F04AFF49A003F02DF901209A
:101A4000EEE70000247379732F53565178333737FC
:101A50006348342F676173737363616E2F746869B1
:101A60006E672F70726F70657274792F6765745F1F
:101A70007265706C79000000442F00207B2269643D
:101A8000223A222573222C22636F6465223A323077
:101A9000302C226D7367223A22737563636573730A
:101AA000222C2264617461223A7B00002274656DED
:101AB00070223A25642C00002268756D6964223A10
:101AC00025642C00226D71325F76616C7565223A57
:101AD000252E32662C000000226368326F223A25E0
:101AE0002E32662C0000000022636F32223A2564F9
:101AF0002C0000002274766F63223A252E32660095
:101B00007D7D0000A1BE5265706C792044656275D0
:101B100067A1BF3A2025730D0A00000041542B4DE8
:101B20005154545055425241573D302C2225732276
:101B30002C25642C302C30004F4B0000A1BE526588
:101B4000706C7920457272A1BFD6B8C1EECDB7B71F
:101B5000A2CBCDCAA7B0DC0D0A00000050020020C5
:101B6000A1BE5265706C792053756363657373A170
:101B7000BFBBD8B8B4B2E9D1AFB3C9B9A60D0A009A
:101B800030B502460B46C1B016A5234823A103F089
:101B900093F8044620492BA003F07EF823462A46FA
:101BA00031A1684603F088F800231A4635A168463B
:101BB000FFF726FD012805D033A003F06DF80020C3
:101BC00041B030BDA2B24FF47A731349374801F0E7
:101BD000F6FDC82000F0D2FB35A003F05DF801202F
:101BE000EEE70000247379732F535651783337375B
:101BF0006348342F676173737363616E2F74686910
:101C00006E672F70726F70657274792F7365745F71
:101C10007265706C79000000700300207B2269649B
:101C2000223A222573222C22636F6465223A2564AE
:101C30002C226D7367223A22737563636573732276
:101C40007D000000A1BE536574205265706C792040
:101C50004465627567A1BF5061796C6F61643A2019
:101C600025730D0A0000000041542B4D515454506F
:101C700055425241573D302C222573222C25642C8D
:101C8000302C30004F4B0000A1BE536574205265CC
:101C9000706C7920457272A1BFD6B8C1EECDB7B7CE
:101CA000A2CBCDCAA7B0DC0D0A0000005002002074
:101CB000A1BE536574205265706C792053756363BF
:101CC000657373A1BFBBD8B8B4C9E8D6C3B3C9B9EB
:101CD000A60D0A0000B5C1B01CA002F0DDFF25A2D0
:101CE0002FA1684602F0E8FF00231A4631A168469A
:101CF000FFF786FC002826D0C82000F03FFB2EA06E
:101D000002F0CAFF36A226A1684602F0D5FF0023E2
:101D10001A4628A16846FFF773FC002813D0C82094
:101D200000F02CFB39A002F0B7FF44A21CA16846CA
:101D300002F0C2FF00231A461EA16846FFF760FCAE
:101D4000002800D0012041B000BD00002D2D2D2025
:101D50005B4D5154545D20537562736372696269BF
:101D60006E672053455420546F706963202D2D2DCC
:101D70000D0A0000247379732F5356517833373787
:101D80006348342F676173737363616E2F7468697E
:101D90006E672F70726F70657274792F736574003F
:101DA00041542B4D5154545355423D302C222573F0
:101DB000222C31004F4B00002D2D2D205B4D515416
:101DC000545D205375627363726962696E67204760
:101DD000455420546F706963202D2D2D0D0A00008D
:101DE000247379732F535651783337376348342F20
:101DF000676173737363616E2F7468696E672F70A8
:101E0000726F70657274792F676574002D2D2D20A7
:101E10005B4D5154545D20537562736372696269FE
:101E20006E6720504F5354205245504C5920546FE8
:101E3000706963202D2D2D0D0A0000002473797325
:101E40002F535651783337376348342F6761737394
:101E50007363616E2F7468696E672F70726F70653F
:101E60007274792F706F73742F7265706C790000C3
:101E700072B6FEE71CB500221421012005F01EF900
:101E80001C4C03220021E060012005F017F92061BD
:101E9000012005F001F96061012005F0FDF8A06165
:101EA00021460320CDE900014FF4007400232246AF
:101EB00011A1144805F0CCFB0E490420091DCDE901
:101EC00000010023224610A1124805F0C1FB094978
:101ED00005200831CDE90001002322460EA111485A
:101EE00005F0B6FB10A002F0D7FEBDE81C4004F0E0
:101EF00071BD0000A80000204163717569736974A9
:101F0000696F6E00DD6D000844697370416C6D553A
:101F100070000000696E0008436C6F7564436D6467
:101F200000000000796A00083E3E3E20467265656A
:101F300052544F53205363686564756C6572205327
:101F400074617274696E6720284E657720417263F0
:101F5000686974656374757265292E2E2E0D0A00EA
:101F600001F00CBFF8B50024009490F82420254619
:101F7000012A12D0012280F824204A681F23072A50
:101F80000DD20668776B521E02EB820293409F438C
:101F90000B6893401F43776319E00220F8BD066881
:101FA0000D2A0AD2376BD21F02EB820293409F4365
:101FB0000B6893401F43376309E0F76A0D3A02EB61
:101FC000820293409F430B6893401F43F7620A6865
:101FD000072306680A2A0AD3F7680A3A02EB420284
:101FE00093409F438B6893401F43F76008E0376935
:101FF00002EB420293409F438B6893401F4337613B
:102000000A68102A01D0112A20D1124B02689A4284
:1020100017D193681B0219D4936843F400039360AB
:102020000968102912D10C490C4A0968B1FBF2F178
:1020300001EB8101490000E0491E00910029FBD11C
:1020400004E0816A41F020018162012480F824507B
:102050002046F8BD002401401000002040420F003F
:102060000068C06C704700002DE9F0414FF0000798
:1020700004003D467ED0A06A002628B9E66284F8B6
:102080002460204600F07EF82046FEF7B1FFA16AEA
:10209000C90600D420B1A06A40F01000A06269E037
:1020A000A16A21F4885141F00201A1626268E169EC
:1020B000237B0A4347EA43010A43A1684FF4807730
:1020C000B94209D0012907D05FF0000194F814C08B
:1020D000BCF1010F02D00AE03946F7E7F3B1A36A79
:1020E00043F02003A362E36A43F00103E362236841
:1020F000D3F804C02CF4694C4CEA010CC3F804C0BA
:1021000021688B68DFF870C003EA0C0313438B600F
:10211000A168B9420BD0012909D00CE0DFF85CC0FE
:10212000A3690CEB43330B4343F40061DFE7218ADF
:102130000D05A5F580152168CB6A23F470032B43A8
:10214000CB62216889680E4B1940914208D1E66242
:10215000A16A21F0020141F00101A162BDE8F08114
:10216000A06A20F0020040F01000A062E06A40F097
:102170000100E0620120F1E7FDF7E1FF00E0FFFF71
:10218000FE0E1FFF00B585B0002100910191029164
:10219000039100680E49884218D10E48816941F4C4
:1021A00000718161816901F400710491816941F0DC
:1021B000040181618069694600F0040004900120F7
:1021C000009003200190044800F0EAF805B000BD3B
:1021D00000240140001002400008014070B5044690
:1021E00090F8240001280DD0012084F82400204616
:1021F000FEF72AFF02004FF0000005D084F824000B
:10220000104670BD022070BDA16A40F201239943BF
:1022100041F48071A1621F4D23681F49AB4218D160
:102220000E6816F4702F14D0A66A46F48016A662C3
:102230000E68760505D5A66A26F4005646F4805643
:10224000A662A66AF6040AD5E66A26F00606E662E3
:1022500006E0A66A26F48016A6625E68E9E7E062F8
:1022600084F824006FF00200186020688368C3F3CC
:102270004243072B05D1A84208D1096811F4702FF9
:1022800004D0816841F480118160B9E7816841F42C
:10229000A001F9E7002801400424014010B590F89E
:1022A00021100022022905D00421816380F820201A
:1022B000012010BD01680B6823F00E030B6001685C
:1022C0000B6823F001030B6090F84030C46B0121D0
:1022D00001FA03F3636080F8211080F82020104693
:1022E00010BD000010B590F821100024022903D081
:1022F0000421816301243DE001680A6822F00E0296
:102300000A6001680A6822F001020A601A4A01683C
:10231000914201D1012121E0174A1432914201D1A9
:1023200010211BE0144A2832914201D1891515E091
:10233000114A3C32914201D189140FE00E4A5032C9
:10234000914202D14FF4803108E00B4A643291424D
:1023500002D14FF4801101E04FF08071064A083A33
:102360005160012180F82110002180F82010416B7C
:1023700001B18847204610BD0800024070B50446F0
:1023800000F008F90546601C02D0044800780444B7
:1023900000F000F9401BA042FAD370BD04000020F9
:1023A0002DE9F84FDFF8B8910024A9F1040B23467A
:1023B0000F2709F1040AABF1040EC9E00125A5407D
:1023C0002A40AA427DD1674ED1F804C0ACEB060882
:1023D000B44532D014DCBCF1030F3AD009DCBCF1B7
:1023E000000F2AD0BCF1010F1CD0BCF1020F31D17B
:1023F0001DE0BCF1110F17D0BCF1120F2AD119E06A
:10240000B8F5881F19D006DCB8F5803F15D0B8F5AF
:10241000801F1FD111E0B8F5001F0ED0B8F5041FC2
:1024200018D10AE0CB6815E0CB681B1D12E0CB6821
:1024300008330FE0CB680C330CE08B682BB1012B19
:102440004FF0080303D0456104E0042302E0056176
:1024500000E00023FF2A01D8064601E000F104064F
:102460004FEA840501D9A5F12005D6F8008007FAC6
:1024700005FC28EA0C0803FA05F548EA0508C6F841
:1024800000804D68ED0062D5374DAE6946F001061B
:10249000AE61AD6924F0030605F001050095334DEA
:1024A00006EB050CDCF80850A607360F07FA06F80D
:1024B00025EA0805DFF8B880404503D14FF0000851
:1024C00017E044E0DFF8AC80404502D14FF001084E
:1024D0000FE0DFF8A480404502D14FF0020808E089
:1024E000DFF89880404502D14FF0030801E04FF03B
:1024F000040808FA06F848EA0508CCF808804D6890
:10250000D9F80060ED024D4601D5164300E0964330
:102510002E604D68DAF80060AD02554601D51643CD
:1025200000E096432E604D68DBF80060AD035D4629
:1025300001D5164300E096432E604D68DEF800603A
:10254000ED03754601D5164300E096432E60641CEA
:102550000D682A46E5407FF431AFBDE8F88F0000F2
:10256000080401400000111000100240000001406A
:1025700000080140000C014000100140001401401F
:102580008068084000D0012070470AB1016170479F
:102590000904FBE701488068704700000400002040
:1025A00070B5040025D094F83D00002520B984F8CA
:1025B0003C50204600F050F9242084F83D0020686B
:1025C000016821F0010101602068016841F40041C7
:1025D00001602068016821F40041016000F054FBB3
:1025E0004D4A6168914201D84C4900E04C4988420B
:1025F00001D2012070BD4B492368B0FBF1F15E6848
:1026000026F03F060E435E606368934206D94FF49E
:10261000967359434FF47A73B1FBF3F12368491C65
:102620001E6A26F03F06314319626168914210D854
:102630004900401EB0FBF1F2521CC2F30B02042A07
:1026400001D2042022E0B0FBF1F0401CC0F30B00EB
:102650001CE0A268F2B301EBC10303EB0116431EB9
:10266000B3FBF6F35B1C43F480431B0549D092B3E4
:1026700001EBC10202EB0111401EB0FBF1F0401C66
:10268000C0F30B0040F4804040F400402168CA6968
:102690004CF6FF739A431043C861D4E90710014315
:1026A0002068026822F0C00211430160D4E90301EE
:1026B00001432068826848F2FF339A4311438160E6
:1026C000D4E9050108432168CA6822F0FF021043DB
:1026D000C86001E00EE016E02068016841F00101E9
:1026E00001602564202084F83D00256384F83E5075
:1026F000002070BD01EB4106431EB3FBF6F35B1CEB
:10270000B3E70120C2E701EB4101401EB0FBF1F04D
:10271000401CC0F30B00B7E7A086010080841E00B8
:1027200000093D0040420F002DE9FF4F83B09A465B
:10273000DDE9119793460446DDF84080FFF72AFF54
:10274000054694F83D0020287FD1192301224049F5
:102750002046009501F01AF9002876D194F83C0043
:10276000012872D0012084F83C0020680168C90764
:1027700003D1016841F0010101602068016821F482
:1027800000610160212084F83D00402084F83E0073
:1027900000262664C4F82480A4F82A90608D208541
:1027A0002C48E062CDE9007553465A46204604990C
:1027B00001F06CF870B930E02A463946204601F045
:1027C0008BF958B1206C042804D12068016841F4C9
:1027D00000710160012007B0BDE8F08F606A2168D8
:1027E00000780861606A401C6062218D491E89B2D0
:1027F0002185628D521E628522685369DB435B0727
:102800000BD469B100781061606A401C6062208D51
:10281000401E2085608D401E6085208D0028CBD114
:102820002A463946204601F085F80028CAD154F8D6
:102830003D0B016841F400710160202004F81E097D
:10284000E67766770020C6E7FFE70220C3E70000CF
:10285000020010000000FFFF10B586B000210091BB
:1028600001910291039100680F4988421AD10F4CDF
:10287000A06940F00800A061A069694600F0080066
:102880000490C0200090122001900320039008487B
:10289000FFF786FDE06940F40010E061E06900F4B4
:1028A0000010049006B010BD00540040001002401B
:1028B000000C014002488168027811448160704731
:1028C00004000020074810B5016841F010010160C4
:1028D000032000F09BF8002000F006F800F04AF812
:1028E000002010BD0020024030B505461C4887B0CE
:1028F000816941F400618161806906A900F400608A
:10290000009001A800F0A0F900F0CEF91549164A90
:10291000B0FBF1F11548491E0260416040F2E73218
:102920000021C0E903218160816100F085FB040082
:1029300012D10E4800F0AEFB04000DD1192000F0BA
:1029400037F8102D07D200222946192000F03EF852
:102950000748056000E0012407B0204630BD0000B4
:102960000010024040420F00002C014028030020CC
:10297000080000200C4808B5816941F0010181611F
:10298000816901F001010091C16941F08051C1618B
:10299000C06900F0805000900448416821F0E06177
:1029A00041F00071416008BD00100240000001408C
:1029B000002809DB00F01F0201219140400980003E
:1029C00000F1E020C0F8001170470000F0B40E4B99
:1029D0001B680C46C3F30223C3F10705042D00D97D
:1029E0000425191D072901D2002300E0DB1E012662
:1029F00006FA05F1491E214099409E40761E164078
:102A00003143F0BC02F080B90CED00E0064900F063
:102A1000070208684FF6FF03184040EA0220034A05
:102A200010430860704700000CED00E00000FA055C
:102A30002DE9F84305460078354CC00754D0E069CD
:102A40000026C00008D4E06940F08050E061E069F1
:102A5000012600F0805000902E480168C90512D46C
:102A60000168804641F480710160FFF793FD0746DD
:102A700005E000BFFFF78EFDC01B642823D8D8F8FF
:102A80000000C005F6D5206A10F4407021D0A98856
:102A900001F4407181421CD0206A1F49012220F4B8
:102AA00040700A6000220A602062C00711D0FFF760
:102AB00071FD074641F2883808E000BFFFF76AFD64
:102AC000C11B414502D90320BDE8F883206A800775
:102AD000F4D5206A696820F44070084320621EB172
:102AE000E06920F08050E0612878800705D56068B3
:102AF000A96820F44040084360602878C00605D5E6
:102B00006068E96820F48000084360600020DBE72B
:102B10000010024000700040400442422DE9F0479E
:102B20000F46050061D0434E306800F00700B84200
:102B300009D2306820F0070038433060306800F078
:102B40000700B84251D128683B4C810712D5400795
:102B500003D5606840F4E06060602878000703D522
:102B6000606840F4605060606068A96820F0F00020
:102B7000084360602878C00728D06868012810D012
:102B80002168022810D0890700292EDA616821F017
:102B9000030101436160FFF7FDFC804641F2883983
:102BA0000DE021688903EFE78901EDE7FFF7F2FC0B
:102BB000A0EB0801494502D90320BDE8F087606811
:102BC000696800F00C00B0EB810FEFD1306800F0C5
:102BD0000700B8420BD9306820F007003843306056
:102BE000306800F00700B84201D00120E5E72878FE
:102BF000400705D56068E96820F4E060084360603C
:102C00002878000706D56068296920F4605040EAFA
:102C1000C100606000F058F86168084AC1F3031110
:102C2000515CC8400649086006480068FFF75CFE32
:102C30000020C2E700200240001002401A7B00087A
:102C400010000020080000200F2202600C4A536888
:102C500003F003034360536803F0F0038360536899
:102C600003F4E063C36052684FF4E06303EAD20206
:102C700002610448006800F0070008607047000027
:102C800000100240002002400448054900684968DD
:102C9000044AC1F30221515CC84070471000002073
:102CA000001002402A7B0008044805490068496872
:102CB000044AC1F3C221515CC84070471000002093
:102CC000001002402A7B00080E4A51680E4801F0AD
:102CD0000C03042B11D0082B0FD10C48C1F38343F4
:102CE000C903C05C0AD55168084AC1F34041921E2D
:102CF000515C054A5043B0FBF1F07047044948432A
:102D0000704700000010024000127A000A7B0008A1
:102D100000093D002DE9F84F040070D02078C04D27
:102D2000C00749D06868C0F38100012807D06868EF
:102D3000C0F38100022809D16868C00306D528685D
:102D4000800339D560680028E7D035E06068B0F5C9
:102D5000803F0BD010B1B0F5A02F11D0286820F41F
:102D600080302860286820F4802002E0286840F441
:102D700080302860606890B1FFF70CFC06460AE0DE
:102D8000286840F480202860F0E700BFFFF702FCCD
:102D9000801B642873D828688003F7D50CE0FFF700
:102DA000F9FB064605E000BFFFF7F4FB801B642833
:102DB000F0D828688003F7D420789A4E80074FF027
:102DC00001094FF0000839D5686810F00C0F07D0E2
:102DD0006868C0F38100022809D16868C00306D47E
:102DE0002868800714D52069012808D110E02069DF
:102DF000B0B1C6F80090FFF7CDFB074605E00AE149
:102E0000FFF7C8FBC01B0228C4D828688007F7D585
:102E10002868616920F0F80040EAC10028600DE0F0
:102E2000C6F80080FFF7B6FB074604E0FFF7B2FBE9
:102E3000C01B022823D828688007F7D42078000711
:102E40002CD57948A169D9B1C0F80090FFF7A2FB51
:102E5000074604E0FFF79EFBC01B02280FD8686AF4
:102E60008007F7D571484FF4FA510068B0FBF1F0D4
:102E7000009000BF0098411E0091FAD20EE080E061
:102E8000C0F80080FFF786FB074604E0FFF782FBEF
:102E9000C01B022875D8686A8007F7D420784007DD
:102EA00060D5E8690027C00008D4E86940F0805088
:102EB000E861E869012700F0805000905C480168F3
:102EC000C90513D40168834641F480710160FFF79E
:102ED00061FB824606E000BFFFF75CFBA0EB0A0047
:102EE00064284ED8DBF80000C005F5D5E06801285D
:102EF0000AD008B1052813D0286A20F00100286202
:102F0000286A20F0040002E0286A40F001002862EC
:102F1000E06841F2883B98B1FFF73CFB82460BE04A
:102F2000286A40F004002862EEE700BFFFF732FB9A
:102F3000A0EB0A0159455AD8286A8007F6D50CE05B
:102F4000FFF728FB824605E0FFF724FBA0EB0A0110
:102F500059454CD8286A8007F6D41FB1E86920F09B
:102F60008050E861E06988B36968C1F38101022992
:102F700044D00228C6F8608004D0FFF70BFB04465B
:102F800038E034E0FFF706FB074604E0FFF702FBFA
:102F9000C01B02282BD828688001F7D4206AB0F51E
:102FA000803F05D16868A16820F40030084368605C
:102FB000D4E908010843696821F474110843686082
:102FC000C6F86090FFF7E6FA044606E025E000BF89
:102FD000FFF7E0FA001B022809D828688001F7D51E
:102FE0001BE000BFFFF7D6FA001B022802D903201E
:102FF000BDE8F88F28688001F4D40EE00128F7D0EE
:103000006868226A00F48031914204D1616A00F458
:103010007010884201D00120EAE70020E8E70000B4
:103020000010024000004242800442421000002092
:10303000007000407047704710B5040003D094F84A
:103040003D0010B107E0012010BD002084F83C00D5
:10305000204600F01EF8022084F83D00211D206863
:1030600001F0C2FB012084F8460084F83E0084F899
:103070003F0084F8400084F8410084F8420084F85E
:10308000430084F8440084F8450084F83D000020A3
:1030900010BD704790F83D10012901D00120704704
:1030A000022180F83D100168CA6842F00102CA603E
:1030B00000680B49884208D0B0F1804F05D009491B
:1030C000884202D00849884204D1816801F0070192
:1030D000062903D0016841F001010160002070471A
:1030E000002C01400004004000080040704770B50B
:1030F0000446006801694FF00005C943890715D4EB
:10310000C168C943890711D4E91E016101202077F4
:10311000206880698007204602D0FFF7E7FF04E0BF
:1031200000F098F8204600F096F8257720680169AD
:10313000C943490717D4C168C943490713D46FF07D
:1031400004010161022020772068806910F4407F2B
:10315000204602D0FFF7CAFF04E000F07BF82046CB
:1031600000F079F8257720680169C943090716D46A
:10317000C168C943090712D46FF008010161042036
:1031800020772068C0698007204602D0FFF7AEFF95
:1031900004E000F05FF8204600F05DF82577206835
:1031A0000169C943C90617D4C168C943C90613D404
:1031B0006FF010010161082020772068C06910F4C9
:1031C000407F204602D0FFF791FF04E000F042F874
:1031D000204600F040F8257720680169C943C907F7
:1031E00008D1C168C943C90704D1891E01612046BD
:1031F00000F032F820680169C943090609D4C168A2
:10320000C943090605D46FF0800101612046FFF72C
:1032100011FF20680169C943490609D4C168C9433F
:10322000490605D46FF040010161204600F01EF808
:1032300020680169C94389060BD4C168C94389065E
:1032400007D46FF0200101612046BDE87040FFF710
:10325000F2BE70BD7047704700680349884201D1D3
:10326000FFF728BB70470000002C0140704718B5DD
:10327000034690F84200202801D0022018BD61B119
:103280005AB10120186300205863184601F0CEFBA4
:103290000028F3D1196B012901D0012018BD19684C
:1032A0000A684968009119680C3151E8002F42F012
:1032B000100241E80024002CF5D118BD08B50068C3
:1032C000154A904227D1154A5180154B0020FF29FD
:1032D00001D8585401E083F8FF005178012917D034
:1032E000009010486946006803F0D2FF009838B19A
:1032F0000D494FF080500860BFF34F8FBFF36F8FC1
:10330000BDE808404FF4807205490848FFF7AFBF99
:1033100001201070F4E708BD0038014000000020D3
:10332000CC000020B800002004ED00E05002002096
:1033300070470000F8B5016804460868CA684B6920
:1033400010F00F0F4FF0000559D003F0010602F402
:103350009077374365D0C10705D0D10503D5616C9F
:1033600041F001016164410705D5D90703D0616CC3
:1033700041F002016164810705D5D90703D0616C72
:1033800041F004016164010707D502F020013143D7
:1033900003D0616C41F008016164616C00293AD08E
:1033A000800604D5900602D5204601F082FA2068F6
:1033B0004069616CC0F38010090700D460B32046F7
:1033C00001F050FA20684069400621D52068143089
:1033D00050E8001F21F0400140E80012002AF5D11A
:1033E000E06BA8B16D494163E06BFEF77BFF0028FD
:1033F00011D0E06B416B01B0BDE8F0400847830697
:103400000FD593060DD52046BDE8F84001F051BA1E
:103410002046FFF78DFFF8BD2046FFF789FF656462
:10342000F8BD266B2023012E7CD1C6067AD5D606A0
:1034300078D508684868009048694FF00206400651
:1034400040D5E16B086840680004000CE8D0A28D0C
:103450008242E5D9E085886920282DD020680C308B
:1034600050E8001F21F4807140E80012002AF5D1D5
:103470002068143050E8001F21F0010140E80012DC
:10348000002AF5D12068143050E8001F21F04001D7
:1034900040E80012002AF5D184F842302563206804
:1034A0000C3050E8001F21F0100140E80012002A03
:1034B000F5D1E06BFEF7F2FE6663A08DE18D401A58
:1034C00081B22AE0A08DE18D401A81B2E08D002802
:1034D000A6D00029A4D022680C3252E8000F20F4B4
:1034E000907042E80007002FF5D12068143050E8B2
:1034F000002F22F0010240E80027002FF5D184F8C8
:103500004230256320680C3050E8002F22F0100272
:1035100040E80023002BF5D166632046FFF7CEFE7E
:10352000F8BDFFE705062BD5150629D594F841000F
:103530002128F5D1A068B0F5805F01D12069B0B134
:10354000206A411C2162216800784860E08C401E9E
:103550000004000CE084E3D12068C16821F0800100
:10356000C1602068C16841F04001C160D8E7206AAD
:103570000088C0F308004860206A801C2062E5E7EC
:103580004006CDD55006CBD5CA68204622F0400271
:10359000CA6084F8413000F05FF9C1E7554800087F
:1035A00070B5040004D094F84100002510B106E085
:1035B000012070BD84F84050204600F023F82420FC
:1035C00084F841002068C16821F40051C1602046A0
:1035D00001F0D0F92068016921F49041016120686F
:1035E000416921F02A0141612068C16841F400511C
:1035F000C1606564202084F8410084F8420065635E
:10360000002070BDF0B585B00024009401940294B0
:1036100003940368384F022038490322384D46028C
:10362000BB4228D18B6943F480438B618B6903F4DF
:10363000804304938B6943F004038B61896903928F
:1036400001F0040104910102CDE900106946284609
:10365000FEF7A6FECDE90064694628460294FEF70F
:103660009FFE002206212520FFF7B0F92520FFF755
:103670009FF905B0F0BD234FBB4219D1CB6943F48C
:103680000033CB61CB6903F4003304938B6943F0BF
:1036900004038B618969039201F004010491042100
:1036A000CDE9001069462846FEF77AFE08201BE0A7
:1036B000154DAB42DDD1CB6943F48023CB61CB699F
:1036C00003F4802304938B6943F008038B618969B9
:1036D0000E4D01F00801CDE90321CDE900606946F6
:1036E0002846FEF75DFEE814CDE900046946284649
:1036F0000294FEF755FEBCE700380140001002407E
:10370000000801400044004000480040000C014017
:103710002DE9F843044690F84200994616460D46B6
:10372000202802D00220BDE8F883ADB1A6B1002068
:103730006064222184F842102063FEF72BFFA685E7
:103740008046E685A0684FF48057B84201D12069D1
:1037500020B12E46002526E00120E4E7002622E0E5
:103760004346002220212046CDF8009001F079F94F
:1037700008B10320D7E726B1A068B8421BD038B102
:1037800008E020684068C0F3080025F8020B07E055
:10379000206980B12068406800F07F0006F8010BC6
:1037A000E08D401EE085E08D0028D9D1202084F8EE
:1037B00042000020B7E720684068EFE770472DE936
:1037C000F843044690F841001F4616460D4620284F
:1037D00002D00220BDE8F8837DB176B1002060649C
:1037E000212084F84100FEF7D5FEA6848046E684B9
:1037F000A068B0F5805F02D003E00120EAE720690D
:1038000010B12E4600250EE000260CE08021204657
:1038100001F027F9A0B9AEB116F8010B2168486094
:10382000E08C401EE084E08C43464FF0000200979D
:103830000028EBD14FF04001204601F012F930B1E1
:103840000320C7E735F8020BC0F30800E6E72020A5
:1038500084F841000020BDE77047FEE701684A692F
:10386000D24352050FD46FF480624A61002140F8C0
:10387000301F202242738173026942F00402026108
:103880000173012070470020704700002DE9F843C4
:10389000044600680D46DDE908970168984616461B
:1038A00041F4807101604B4600224FF00111204627
:1038B000009700F06BF848B120680068C00502D599
:1038C0004FF4007020640320BDE8F883216805F000
:1038D000FE0008613B464A461549204600F09EF826
:1038E00088B920684169806900903A464946204677
:1038F00000F0F2F848B1206C042804D12068016877
:1039000041F4007101600120DEE7F5B2B8F1010F6A
:1039100009D02168300A08613A464946204600F03D
:10392000DBF80028E7D1206805610020CCE7000023
:103930000200010070B516460D4604461EE0204602
:10394000FFF78CFF08B1012070BD681C16D0FEF790
:1039500021FE801BA84200D885B920684069C04379
:1039600040070BD5002044F8300F20216173A0736D
:10397000216941F0200121612073E4E7206840695A
:10398000C0434007DBD4002070BD00002DE9F047A4
:10399000984617460D460446C1F30746DDF82090C9
:1039A0002AE000BFB8F1FF3F26D0FEF7F3FDA0EB01
:1039B0000901414502D8B8F1000F1DD12068012E40
:1039C00016D0806925EA00000004000C12D0002007
:1039D000B84211D1002044F8300F20216173A07348
:1039E000216941F02001216120730120BDE8F087A9
:1039F0004069E7E70120EBE72068012E0AD08069E3
:103A000025EA00000004000C06D00020B842C9D00E
:103A10000020EBE74069F3E70120F7E72DE9F047E5
:103A2000984616460D4604464FF000094FF0200A0E
:103A3000C1F3074723E020684069C043400515D41F
:103A40002068016841F40071016021686FF48060B2
:103A50004861C4F8309084F83DA084F83E90216C11
:103A600041F00401216484F83C9021E0701C06D0F0
:103A7000FEF790FDA0EB0800B04203D816B1012F6D
:103A80001FD021E02068012F15D0806925EA0000B1
:103A90000004000C18D000BF44F8309F84F80DA03B
:103AA00084F80E90216941F02001216184F80C9086
:103AB0000120BDE8F087406925EA00000004000C01
:103AC000EAD12068406901E02068806925EA0000A9
:103AD0000004000CAFD1ECE770B516460D46044665
:103AE0001EE02046FFF7BAFE08B1012070BD681C39
:103AF00016D0FEF74FFD801BA84200D885B920687C
:103B00004069C04300060BD5002044F8300F202147
:103B10006173A073216941F0200121612073E4E702
:103B200020684069C0430006DBD4002070BD00005F
:103B30000649074A0968B1FBF2F141430520B1FB90
:103B4000F0F000E000BF401EFCD2704710000020E3
:103B500040420F0010B5012202210448FEF715FD76
:103B6000BDE810404FF47A70FEF708BC0008014031
:103B70002DE9F35F464D002202212846FEF705FDA0
:103B80001420FEF7FBFB012202212846FEF7FDFC74
:103B9000404C02212846FEF7F3FC012801D1641EA7
:103BA000F7D242F21074274602212846FEF7E8FCBD
:103BB00008B97F1EF8D202212846FEF7E1FC012851
:103BC0001BD0002C62D00024DFF8CC902F46A046FA
:103BD00009F8048000254FF0010A02213846FEF75B
:103BE000CFFC0028F9D02820FFF7A2FF0221384699
:103BF000FEF7C6FC012803D011E0641EDBD2E2E729
:103C000019F80420C5F107030AFA03F10A4309F879
:103C1000042002213846FEF7B3FC0128F9D06D1CC0
:103C2000EDB2082DD9D3641CE4B2052CD0D3002505
:103C30004C461AA0615D01F02FF86D1C052DF8DBD4
:103C400020786178E2780844A17811440844217909
:103C5000C0B288420CD114A001F01EF8E07894F9AB
:103C600000B094F90260000605D5704246B202E049
:103C700010A001F011F8009806700199002081F859
:103C800000B041462154401C0528FBDBBDE8FC9FE9
:103C900000080140FFFF0F00140000206461746100
:103CA000203D2025640D0A00D0A3D1E9B3C9B9A6EF
:103CB00000000000D0A3D1E9CAA7B0DC00000000DA
:103CC00070B500252C462148FEF7CAF905440220AC
:103CD000FEF754FB641CE4B20A2CF4D395B12846D9
:103CE000FCF721FC1A49FCF76EFB1A49FCF739FB7B
:103CF0001949FCF768FB044618481949844203DB5C
:103D0000184C04E0002070BD8C4200DC0C462146BB
:103D1000FCF721FB1449FCF724FB2146FCF753FB7D
:103D20001249FCF750FBB0F5000F00DA1048FCF721
:103D30002CFC4FF060420F4B01F0AAFD00220E4B0D
:103D4000FCF77FFBBDE87040FCF732BCCC010020E3
:103D5000000020413333534000F07F450000A04075
:103D60000AD7A33C14AE9F400000FA440080CF4520
:103D70000AD7233CA7C601C000F281400148FEF7E4
:103D80002DBA0000CC0100203EB50024114800945B
:103D9000019402940E498460016001250573047545
:103DA00005614FF460214460C161FEF75DF908B11F
:103DB000FEF75EF807200094CDE9015069460548FA
:103DC000FEF7D0F8002801D0FEF752F83EBD000003
:103DD00000240140CC01002070B586B000242148A9
:103DE0000094019402940394816941F0100181616F
:103DF000816901F010010491816941F02001816124
:103E0000816901F020010491816941F0040181611F
:103E1000816901F004010491816941F00801816127
:103E20008069114E00F008000490012212213046F2
:103E3000FEF7ABFB0220009001AA1120032582E8C7
:103E4000310069463046FEF7ABFA1020009001AA17
:103E5000012082E8310069463046FEF7A1FA06B03B
:103E600070BD000000100240000801400D4810B570
:103E70000B4901600C49416000214FF48042816090
:103E8000C0E9031241618161C1610162FEF788FBF3
:103E9000002803D0BDE81040FDF7EABF10BD0000C8
:103EA00000540040FC010020A08601000C4810B521
:103EB0000A4901604FF4E1314160002181600C2228
:103EC000C160C0E904128161C161FFF769FB00288C
:103ED00003D0BDE81040FDF7CBBF10BD0038014056
:103EE000500200200C4810B50A4901604FF4E1313E
:103EF0004160002181600C22C160C0E9041281612F
:103F0000C161FFF74DFB002803D0BDE81040FDF76D
:103F1000AFBF10BD00440040980200200C4810B50F
:103F20000A4901604FF416514160002181600C2262
:103F3000C160C0E904128161C161FFF731FB002853
:103F400003D0BDE81040FDF793BF10BD004800400E
:103F5000E0020020FEE7FEE72DE9FF41144680283D
:103F60003AD2402938D2002C36D0002B34D0021956
:103F7000802A02D9C0F18002D4B2CA18402A02D9DC
:103F8000C1F14002D3B20219CD08521E1944D7B272
:103F9000491ECA1701EB5271C1F3C70633462A46C0
:103FA000394600F015F9701B401C604385B20020B3
:103FB00064268DF80C00044601270BE003A8CDE928
:103FC000000701234022782102960448FEF7ACFB4B
:103FD000641CA4B2AC42F1D3BDE8FF81FC01002017
:103FE00070B5002404F1B000C0B200F0BBF80020AE
:103FF00000F0B8F8102000F0B5F80025002000F01F
:10400000C3F86D1CEDB2802DF8D3641CE4B2082C0B
:10401000E8D370BD10B500F03FFBFFF7E1FF0022D1
:104020001146104600F0EEF8012200210C2000F0AD
:10403000E9F81A220021182000F002F9502200218C
:104040003C2000F0FDF850220021422000F0F8F85A
:104050004D220021482000F0F3F802221021002018
:1040600000F0D0F8032210210C2000F0CBF81A2227
:104070001021182000F0E4F8502210213C2000F01C
:10408000DFF850221021422000F0DAF84D221021F2
:10409000482000F0D5F804222021002000F0B2F8DA
:1040A000052220210C2000F0ADF81A222021182032
:1040B00000F0C6F8502220216D2000F0C1F85022F7
:1040C0002021732000F0BCF84D222021792000F03F
:1040D000B7F806223021002000F094F807223021A2
:1040E0000C2000F08FF808223021182000F08AF808
:1040F00009223021242000F085F81A2230213120B5
:1041000000F09EF8502230216D2000F099F85022E6
:104110003021732000F094F84D223021792000F0F6
:104120008FF80A2200214E2000F06CF80B220021AB
:104130005A2000F067F860220021792000F080F812
:104140000C2210214E2000F05DF80B2210215A2085
:1041500000F058F805221021BDE81040792000F049
:104160006FB8000001B584B00121642204A88DE875
:1041700007000B46002278210248FEF7D5FA05B069
:1041800000BD0000FC01002001B584B001216422C3
:1041900004A88DE807000B46402278210248FEF76C
:1041A000C3FA05B000BD0000FC0100200EB50029D7
:1041B0000AD0002808D064228DE80700012340229D
:1041C00078210248FEF7B0FA0EBD0000FC01002085
:1041D0002DE9F04104461D4616460F462120FFF703
:1041E000C1FF2046FFF7BEFF3846FFF7BBFF222086
:1041F000FFF7B8FF3046FFF7B5FF2846BDE8F041AE
:10420000FFF7B0BF70B5144600F10B027F2A13D838
:1042100001F10B033F2B0FD8D5B2CA08DB082946A2
:10422000FFF7D6FF04EB44000449BDE8704001EB02
:10423000C0001821FFF7BABF70BD0000BE7F0008A4
:1042400070B51446421D7F2A13D801F10B033F2B92
:104250000FD8D5B2CA08DB082946FFF7B9FF04EB2F
:1042600044000449BDE8704001EB80000C21FFF7D9
:104270009DBF70BD327B000870B50E4604462023FA
:10428000122200216720FFF767FE002C04DA0D22BE
:1042900000216720FFF7D4FF0A2594FBF5F01030CA
:1042A000C2B200216D20FFF7CBFF94FBF5F005FBB8
:1042B00010401030C2B200217320FFF7C1FF96FBFF
:1042C000F5F01030C2B210216D20FFF7B9FF96FB58
:1042D000F5F005FB1060BDE870401030C2B210214F
:1042E0007320FFF7ADBF00002DE9F04105461E2207
:1042F0000C2310211046FFF72FFE42F20F701E27ED
:10430000354C854210D9401CB5FBF0F01030C2B2DC
:10431000207800EB400107EB4101CBB2401C20703C
:1043200010211846FFF78CFF4FF47A700A26854259
:1043300012D3B5FBF0F0B0FBF6F106FB11022078CA
:10434000103200EB400107EB4101CBB2401C207062
:1043500010211846FFF774FF632D13D96420B5FBB5
:10436000F0F0B0FBF6F106FB11022078103200EB02
:10437000400107EB4101CBB2401C207010211846D0
:10438000FFF75EFF092D12D9B5FBF6F0B0FBF6F191
:1043900006FB11022078103200EB400107EB4101CF
:1043A000CBB2401C207010211846FFF749FFB5FB27
:1043B000F6F006FB10522178103201EB4100491C47
:1043C00007EB40002170C0B21021FFF739FF002039
:1043D0002070BDE8F0810000460000202DE9F74F75
:1043E000164680461E220C2300211046FFF7B4FD1E
:1043F0001E220C2320211046FFF7AEFD0C231E22A7
:1044000030213620FFF7A8FD4046FCF791F80A2539
:1044100090FBF5F105FB11009B4C1030C2B22078E7
:104420001E2700EB400107EB4101CBB2401C20707E
:1044300000211846FFF704FF20780E2200EB400110
:1044400007EB4101CBB2401C207000211846FFF75A
:10445000F7FEDFF838A240465146FBF782FFFCF733
:1044600067F890FBF5F105FB11001030C2B220781F
:1044700000EB400107EB4101CBB2401C2070002152
:104480001846FFF7DDFEDFF808B240465946FBF755
:1044900068FFFCF74DF890FBF5F105FB11001030BB
:1044A000C2B2207800EB400107EB4101CBB2401CC7
:1044B000207000211846FFF7C3FE76494046FBF7FF
:1044C00050FFFCF735F890FBF5F105FB11001030BB
:1044D000C2B2207800EB400107EB4101CBB2401C97
:1044E000207000211846FFF7ABFE4FF0000901983D
:1044F000FCF71EF890FBF5F105FB11001030C2B27D
:104500004FF0010884F8008020213846FFF798FE1C
:1045100020780E2200EB400107EB4101CBB2401C9A
:10452000207020211846FFF78BFE51460198FBF7BB
:1045300018FFFBF7FDFF90FBF5F105FB11001030B4
:10454000C2B2207800EB400107EB4101CBB2401C26
:10455000207020211846FFF773FE59460198FBF79B
:1045600000FFFBF7E5FF90FBF5F105FB11001030B4
:10457000C2B2207800EB400107EB4101CBB2401CF6
:10458000207020211846FFF75BFE42490198FBF797
:10459000E8FEFBF7CDFF90FBF5F105FB11001030B5
:1045A0002178C2B201EB4100491C07EB40002170A9
:1045B000C0B22021FFF744FE42F20F70362784F884
:1045C000009086420AD9401CB6FBF0F01030C2B20F
:1045D000384684F800803021FFF732FE4FF47A70BD
:1045E000864212D3B6FBF0F0B0FBF5F105FB1102E9
:1045F0002078103200EB400107EB4101CBB2401CA8
:10460000207030211846FFF71BFE632E13D964205B
:10461000B6FBF0F0B0FBF5F105FB1102207810328B
:1046200000EB400107EB4101CBB2401C2070302170
:104630001846FFF705FE092E12D9B6FBF5F0B0FBC0
:10464000F5F105FB11022078103200EB400107EB79
:104650004101CBB2401C207030211846FFF7F0FD1D
:10466000B6FBF5F005FB10622178103201EB41003A
:10467000491C07EB40002170C0B23021FFF7E0FD7C
:1046800084F80090BDE8FE8F460000200000204125
:104690000000C84200007A4410B56420FDF76EFEA9
:1046A000AE20FFF75FFDA820FFF75CFD3F20FFF77E
:1046B00059FDD320FFF756FD0020FFF753FD4020A2
:1046C000FFF750FDA120FFF74DFDC820FFF74AFD81
:1046D000DA20FFF747FD1220FFF744FDD520FFF752
:1046E00041FD8020FFF73EFDD920FFF73BFDF12083
:1046F000FFF738FDDB20FFF735FD4020FFF732FDE7
:104700008D20FFF72FFD1420FFF72CFD2020FFF751
:1047100029FD0020FFF726FD2120FFF723FD0020C3
:10472000FFF720FD7F20FFF71DFD2220FFF71AFD78
:104730000020FFF717FD0720FFF714FDA620FFF765
:1047400011FDBDE81040AF20FFF70CBD10B502F021
:10475000ADFF012803D0BDE8104002F087BC10BDBA
:1047600030B593B028216846FBF760FD14210AA8F4
:10477000FBF75CFD002501200F95109511950104B4
:1047800012958DE8230004904FF4E010CDE9081055
:10479000022407946846FEF7BDFA08B172B6FEE738
:1047A0000AA90F2081E831004FF48060CDE90D05A2
:1047B00002210AA8FEF7B2F908B172B6FEE74FF47B
:1047C000004011900F940FA8FEF732F9002801D095
:1047D00072B6FEE713B030BD704700000148FEF727
:1047E00086BC000028030020F0B50268164B174C69
:1047F000174D4FF08047984205D0B84203D0A042F1
:1048000001D0A84203D122F070064A683243984290
:1048100005D0B84203D0A04201D0A84203D122F46F
:104820004074CA6822434C6922F08002224302602D
:104830008A68C2620A688262984201D1096901638A
:1048400001214161F0BD0000002C01400004004046
:104850000008004010B5406A0021C185C184FEF700
:1048600067FD10BD01680C3151E8002F22F49072F1
:1048700041E80023002BF5D10168143151E8002FE5
:1048800022F0010241E80023002BF5D1016B012940
:1048900009D101680C3151E8002F22F0100241E8E3
:1048A0000023002BF5D1202180F842100021016364
:1048B000704708B590F84210222901D0022008BDA7
:1048C00082684FF480539A4201D1016921B1816A13
:1048D0009A421BD04AB10AE00268816A5268C2F368
:1048E00008020A80816A891C08E0026972B10268C4
:1048F000526802F07F020A70816A491C8162C18D90
:10490000491E0904090CC18503D01BE002685268E6
:10491000F1E70168CA6822F02002CA600168CA682B
:1049200022F48072CA6001684A6922F001024A6179
:10493000202180F8421000214163026B012A03D03C
:10494000FEF73CFF002008BD016301680C3151E80F
:10495000002F22F0100241E80023002BF5D101685E
:104960000A68D20602D50A6849680091818DFEF76F
:10497000A5FCE7E770B5044600680169E26821F428
:104980004051114301612169A068084361690843EE
:104990002168CA6841F20C639A430243CA602068E6
:1049A0004169A26921F44071114341611E492068A7
:1049B000884202D1FEF778F901E0FEF765F900EBD5
:1049C000C00101EB0012606864218000B2FBF0F3CB
:1049D000B3FBF1F36FF018067343B2FBF0F5B2FBD3
:1049E000F0F605EB8305322303EB0515B5FBF1F576
:1049F000B6FBF1F605F0F00505EB0615B2FBF0F697
:104A0000B2FBF0F0B0FBF1F06FF01802504306EB90
:104A1000800003EB0010B0FBF1F0216800F00F0004
:104A20002844886070BD00000038014081628285A2
:104A3000C28500214164222180F84210016921B120
:104A40000168CA6842F48072CA6001684A6942F02B
:104A500001024A610068C16841F02001C160002084
:104A600070472DE9F041984617460E460446069DCC
:104A700027E0681C25D02DB1FDF78CFDA0EB0800C8
:104A8000A8421ED920680C3050E8001F21F4D071D4
:104A900040E80012002AF5D12068143050E8001FC9
:104AA00021F0010140E80012002AF5D1202084F80D
:104AB000410084F84200002084F840000320BDE853
:104AC000F0812068006836EA000004D00020B84277
:104AD000CFD00020F3E70120F9E700000148FEF7FE
:104AE00029BC0000500200200148FEF723BC000052
:104AF000E0020020FEE7000038B500248DF80040F9
:104B00006423012269461548FEF702FE144920B1CC
:104B1000032801D14C700C7038BD4878114B01222C
:104B200088B10128F8D108789DF800501D54401C28
:104B3000C0B208700928EFD38A704C700C700AA0BC
:104B400000F0AAF838BD9DF800402C2CFAD1087866
:104B50001C544A70401C08700AA0F1E7E0020020D3
:104B6000190000207004002039D7D6BDDACAFDBE76
:104B7000DDBDD3CAD5CDEAB3C9A3ACBFC9BDE2CEB2
:104B8000F60D0A00BCECB2E2B5BDD6A1CDB73078C7
:104B90003243A3ACBFAACABCBDD3CAD5BAF3D0F8BE
:104BA000CAFDBEDD0D0A00002DE9F0410021264DB1
:104BB00008462A5C401C1144C0B2C9B20828F8D388
:104BC000287A224C884203D001202070BDE8F08171
:104BD00000202070688840BAFBF7A5FC1C4F3946BE
:104BE000FBF7F1FB0646A060A88840BAFBF79BFCE8
:104BF0003946FBF7E8FBE060E88840BAFBF793FC36
:104C000020613046FBF7C1FC02460B4611A000F0C4
:104C100043F8E068FBF7B9FC02460B4613A000F02E
:104C20003BF82069FBF7B1FC02460B4615A000F0EB
:104C300033F82069FBF795FC82B2D4E90201BDE8A4
:104C4000F041FFF7CBBB00007004002030000020D3
:104C500000007A4454564F43C5A8B6C8A3BA252EBF
:104C600033662070706D0D0A000000004348324F1B
:104C7000C5A8B6C8A3BA252E33662070706D0D0A7C
:104C800000000000434F32C5A8B6C8A3BA252E3392
:104C9000662070706D0D0A000FB4054B10B503A9A6
:104CA000044A029800F09CF910BC5DF814FB000067
:104CB0001D570008C40000200FB4084B10B504A90C
:104CC00002AA039800F08CF9044602A9002000F023
:104CD0000AFD204610BC5DF814FB0000E7560008F2
:104CE000490050EAC12018BF04204A0D18BF40F007
:104CF000010040F2FF72B2EB515F08BF40F00200CA
:104D0000012808BF052070470907090E002804DBA9
:104D100000F1E02080F80014704700F00F0000F16F
:104D2000E02080F8141D70472DE9F0414F1E00EB84
:104D3000C7010446D1E9000115461E4637F00602B8
:104D40000DD02A463346FBF77CFB7F1E04EBC703DE
:104D5000D3E90023FBF77CFD37F00602F1D1022FE7
:104D600025D0042F13D0062F18BFBDE8F0812A46A6
:104D70003346FBF766FBD4E90A23FBF769FD2A46B5
:104D80003346FBF75EFBD4E90823FBF761FD2A46B7
:104D90003346FBF756FBD4E90623FBF759FD2A46B9
:104DA0003346FBF74EFBD4E90423FBF751FD2A46BB
:104DB0003346FBF746FBD4E90223FBF749FD2A46BD
:104DC0003346FBF73EFBD4E90023BDE8F041FBF797
:104DD0003FBD00000022134610460149FBF7DFBD2E
:104DE0000000F03FFBF734BD002213461046114689
:104DF000FBF7D5BD40F2013200204FF0E041FBF758
:104E00003DBE0000024A00201107FBF737BE00003C
:104E100001FDFFFF0148006870470000C800002046
:104E200002E008C8121F08C1002AFAD17047704773
:104E3000002001E001C1121F002AFBD170470000D1
:104E40000149086070470000C80000202DE9FF5F9D
:104E500082B00021DDE90430020DDDF840B00343EB
:104E600018D044F61050A2F2FF32424315141198A4
:104E700001281FD0A5EB0B00401C5FEA000A4FF091
:104E800000064E4FDFF83891B046504615D5CAF1AE
:104E9000000413E0119801244AA3012801D16FEA0C
:104EA0000B010298119AC0E90031C0E9024206B034
:104EB000BDE8F09FCBF10000DFE704460021404A47
:104EC000491842EB0450CDE9001012E0E00707D08A
:104ED00032463B4640464946FBF7B3FA8046894690
:104EE00032463B4610461946FBF7ABFA06460F46DC
:104EF0006410002CEAD1DDE90401DDE90023BAF1F8
:104F0000000F06DAFBF79DFA42464B46FBF799FA8B
:104F100005E0FBF744FD42464B46FBF740FD0446E7
:104F20000E460022284BFBF7E9FD03D84FF0FF3077
:104F3000014607E00022254B20463146FBF788FC5E
:104F4000FBF7C4FD102409E0002C0ADB0A22002331
:104F5000FBF76AFB039B30321A55641E50EA0102CC
:104F6000F2D1641C039AC4F111031444119A012A6A
:104F700003D0012208430DD10AE0084304D00020E9
:104F80004FF0110B119072E7A3EB0B056D1E0DE0B6
:104F90005B4504DD4FF0000205F1010504E003DA92
:104FA0004FF00002A5F10105002AECD002981199FA
:104FB000C0E90231C0E9004579E700000000144073
:104FC0000000F03F300000000000F0430000E03F30
:104FD00030380A2801D201207047002070470000B5
:104FE0002DE9FF4F95B09A46884606460025EEE12A
:104FF000252877D100242746F94A0121039400E0AF
:10500000044316F8013F203B01FA03F01042F7D1A8
:1050100030782A2811D06FF02F033078A0F13002B9
:10502000092A16D8039A44F0020402EB820203EB29
:1050300042021044761C0390EFE758F8042B0392C9
:10504000002A03DA504244F40054039044F002046E
:10505000761C30782E2816D116F8010F44F004047F
:105060002A280DD06FF02F023078A0F13003092BE1
:1050700009D807EB870302EB4303C718761CF3E755
:1050800058F8047B761C30786C280FD006DC4C284E
:1050900017D068280DD06A2814D104E0742810D0E5
:1050A0007A280FD10DE044F400140AE044F480148F
:1050B00001E044F440147278824202D104F5801475
:1050C000761C761C307866280BD013DC582877D0F5
:1050D00009DC002875D04528F6D04628F4D04728AA
:1050E0001AD193E118E0632835D0642879D0652877
:1050F00012D18BE1702873D008DC6728F1D06928C1
:105100006FD06E280DD06F2806D1ACE073282CD05C
:10511000752874D0782853D05246179990476D1C43
:1051200054E1C4F30250022809D003280DD0D8F866
:10513000001004280DD00D6008F1040846E1D8F8ED
:105140000010EA17C1E90052F6E7D8F800100D8008
:10515000F2E70D70F0E718F8041B8DF8001000203E
:105160008DF80100EB46012003E058F804BB4FF036
:10517000FF3061074FF0000102D40DE009F1010199
:105180008946B9420FDA8145F8DB1BF8091000297E
:10519000F4D108E009F1010189468142FADB1BF8EC
:1051A00009100029F6D103985346A0EB09072146C0
:1051B0003846179A00F080FA284400EB090507E00A
:1051C00044E008E10DE01BF8010B524617999047A7
:1051D000B9F10109F7D2534621463846179AF2E051
:1051E00039E00A21C4F302524FF0000B0091022A69
:1051F00006D058F8040BC117032A09D00AE023E0AF
:1052000008F1070020F00702F2E80201904605E0ED
:1052100000B2C117042A01D140B2C117002906DA31
:105220000A460021404261EB02012D2202E02205E4
:1052300004D52B228DF80420012203E0E20701D0DF
:105240002022F7E7914657E00A2100E010214FF0B5
:10525000000B00910BE010214FF0000B44F0040410
:105260000827009103E008204FF0000B0090C4F3E2
:105270000252022A05D058F8040B0021032A08D054
:1052800008E008F1070020F00702F2E8020190466A
:1052900003E080B2042A00D1C0B24FF00009220717
:1052A0002AD53278702A07D0DDF800C08CF0100CB7
:1052B0005CEA0B0C05D00EE040228DF804200122A0
:1052C00008E050EA010306D030238DF804308DF851
:1052D000052002229146009B83F0080353EA0B034A
:1052E0000AD150EA010201D1620705D530228DF8BA
:1052F00004204FF001097F1E3278582A04D039A2C9
:105300000C920CAA02920BE03BA2F9E75B46009AD2
:10531000FBF78AF90C9B9B5C029A521E0292137057
:1053200050EA0102F2D1029804A9081A00F1200BF8
:10533000600702D524F4803400E001275F4502DDD8
:10534000A7EB0B0000E0002000EB0B01009003989E
:105350004944401A0390E00306D453462146179A65
:10536000039800F0A9F90544002706E001A8524679
:10537000C05D179990476D1C7F1C4F45F6DBE0031D
:105380000CD553462146179A039800F095F9054429
:1053900004E030205246179990476D1C0099481E32
:1053A00000900029F5DC08E0029802995246007846
:1053B000491C0291179990476D1CBBF10001ABF19C
:1053C000010BF1DC5BE100F065F90544761C3078F7
:1053D00000287FF40DAE19B02846BDE8F08F00001C
:1053E00009280100303132333435363738396162BB
:1053F000636465660000000030313233343536377F
:10540000383941424344454600000000600700D45B
:10541000062708F1070020F00700F0E80223804685
:1054200003F0004C5FEA0C0001D097A009E02005D2
:1054300001D596A005E0E00701D095A001E0AFF20C
:105440004C001390307823F0004365280CD006DC24
:10545000452809D046281DD047287FD13BE0662843
:1054600018D067287AD136E00021112F01DB1120F6
:1054700000E0781CCDE9000104A90CA8FFF7E6FCC8
:10548000DDE90D010C9A4FF0000B07F101091092B4
:1054900000914EE04FF000400097CDE9011004A9C3
:1054A0000CA8FFF7D3FCDDE90D020C9B0F994FF020
:1054B000000B91461093009211B9791C00EB010981
:1054C000B7EB090003D4C0F1FF3B07F10109A9EBD9
:1054D0000700019042E0012F00DA01270021112F7F
:1054E00001DD112000E03846CDE9000104A90CA837
:1054F000FFF7ACFCDDE90D010C9A00914FF0000BB9
:10550000B946109221070FD4009A4A4503DA914612
:1055100001E0A9F10109B9F1010F05DD109AA9F126
:105520000101515C3029F4D0B84202DA10F1040FC5
:1055300003DA0121CDE9011010E0002803DC8344E7
:10554000A9EB000102E0411C494500DD8946A0EBC2
:105550000B00401C01904FF000400290200705D442
:105560000198484502DB4FF0FF30019000208DF894
:105570004B0002980DF14B07B0F1004F25D00220EF
:105580000C902B200D90029800280CDA40420290DB
:105590002D200D9007E00A210298FBF72FF83031FB
:1055A000029007F8011D0C99481E0C900029F2DCAE
:1055B00002980028EFD1791E0D980870307800F01D
:1055C000200040F0450007F8020D11A8C01BC01DC7
:1055D00002901398007800B1012000EB09010198B6
:1055E00001EBE071029801440398401A401E0390B9
:1055F000E00306D453462146179A039800F05CF85E
:1056000005441398007818B15246179990476D1CBD
:10561000E00323D553462146179A039800F04CF82F
:1056200005441BE0BBF1000F07DB0098584504DD83
:105630001098179910F80B0001E017993020524686
:10564000904701980BF1010B401E05F101050190F7
:1056500004D12E205246179990476D1CB9F10001D4
:10566000A9F10109DEDC05E017F8010B5246179994
:1056700090476D1C0299481E02900029F4DC5346A5
:105680002146179A03989EE62D0000002B0000008B
:10569000200000002DE9F041044600251E46174673
:1056A000880404D405E039462020B0476D1C641EF0
:1056B000F9D52846BDE8F0812DE9F04104460025E2
:1056C0001E469046C80301D5302700E020278804F5
:1056D00004D505E041463846B0476D1C641EF9D537
:1056E0002846BDE8F0810A68531C0B6010707047B3
:1056F00030B583B00446FFF78DFB05460020CDE9A9
:105700000000024621466846FAF7DBFF2846FFF70D
:1057100097FBDDE9000103B030BD000013B50A239B
:10572000012269460248FEF74AF800981CBD0000B5
:1057300098020020FEF70EBA10B50749481EFEF782
:1057400017FA0548401E90F9012090F90010BDE8B5
:10575000104002A0FFF7A0BA45000020CEC2B6C894
:10576000A3BA25642C20CAAAB6C8A3BA25640D0A18
:1057700000000000FDF7A6F8FEF7F2FFFEF72CFB95
:10578000FEF702FBFEF792FBFEF7ACFBFEF7C6FB53
:10579000FEF76CFB0CA0FFF77FFAFEF73BFCFCF773
:1057A000DFFBFFF7C7FF4FF480720C490C48FDF791
:1057B0005EFD0C4C01206070084800F01DF80020D0
:1057C0006070FCF757FBFEE753797374656D2049F1
:1057D0006E697420446F6E652E0A0000CC000020B4
:1057E000500200200000002010B5FEF769FA0149C0
:1057F000486010BD3000002010B51548FBF7BAFE18
:105800001348FBF775FF08B112A000E016A0FFF7E0
:1058100043FA1BA11DA0FBF757FC002816D040F649
:10582000B830FCF7ABFD0A48FBF75EFDFBF7AAFDBD
:1058300000280BD04FF4FA70FCF7A0FDFBF7F0FD49
:10584000002803D0BDE81040FCF744BA10BD0000AA
:10585000CC000020455350333220436865636B20F1
:105860004F4B210D0A00000045535033322043684E
:1058700065636B204661696C6564210D0A00000058
:105880003131323233333434353500007171000038
:105890002DE9F04D1D460C4698B0174621F0004109
:1058A00023F00043002814BF4FF0010C4FF0000C10
:1058B0000CEB440CFE4A0CEB02064FEA620C664508
:1058C0002BD33E0018BF012606EB45061644F94AC5
:1058D000964222D3F84A53EA070C02D0944205D1EB
:1058E00048B918B000201146BDE8F08D002808BF67
:1058F0004FF0000C01D04FF0010C0CEB440212F5FC
:10590000001F0AD8002F14BF4FF0010C4FF0000CFD
:105910000CEB450212F5001F07D918B03A462B468A
:105920002146BDE8F04DFFF75DBA0022DFF88CA3F9
:10593000002CB8BF534526DADFF884C36345A8BFFF
:10594000022220DADFF870C39C451CDCDFF874C348
:105950000CEB235CBCF1140F08DDCCF1340627FA04
:1059600006FC0CFA06F6BE420DD108E05FB9CCF198
:10597000140623FA06FC0CFA06F69E4203D10CF03C
:105980000102C2F1020251EA000C19D1002D17DA0E
:10599000002C18BF022A01D0012A07D00220FFF7ED
:1059A0004FFA18B0BDE8F04DFFF714BA0220FFF728
:1059B00047FAFFF70FFA18B081F00041BDE8F08D0B
:1059C000B7F1000C6CD1534525D104F1804212F59A
:1059D000801201BF00280020B74918B008BFBDE8F9
:1059E000F08DB548884207DC002DA1BF60462946EE
:1059F00018B0BDE8F08D07E0281E05DA80F0004100
:105A000018B06046BDE8F08DAF497944D1E9000196
:105A100018B0BDE8F08DDFF8A0C2634525D1002D98
:105A20001FDA19B1514512D1D8B909E0002840F068
:105A3000EC82A24A214618B062F31E01BDE8F08D47
:105A40000020214618B060F31E01BDE8F08D08DA91
:105A500018B02346BDE8F04D024600206146FAF733
:105A60009EBF18B02146BDE8F08D514518DAB5F15A
:105A7000804F0DD0A5F1005CBCF1FF5C10D1B4F1FA
:105A8000000C0DDB18B06146BDE8F04D00F072BEB1
:105A9000234618B00246BDE8F04D1946FAF7D1BCCE
:105AA000060024F0004C3BD1D9B1514533D1002C34
:105AB00006DD002DA1BF0020514618B0BDE8F08DD5
:105AC000002C01DD002D1BDB002C13DA002D11DB77
:105AD000012A4FF0000014BF78497C4918B0BDE896
