:020000040800F2
:10000000D0060020050100085F1F0008871D0008BA
:100010005D1F0008E3060008ED2200080000000054
:10002000000000000000000000000000631F000846
:10003000E506000800000000611F0008651F0008B9
:100040001F0100081F0100081F0100081F01000810
:100050001F0100081F0100081F0100081F01000800
:100060001F0100081F0100081F0100081F010008F0
:100070001F0100081F0100081F0100081F010008E0
:100080001F0100081F0100081F0100081F010008D0
:100090001F0100081F0100081F0100081F010008C0
:1000A0001F010008E11F00081F0100081F010008D0
:1000B0001F0100081F0100081F0100081F010008A0
:1000C0001F0100081F0100081F0100081F01000890
:1000D0001F010008E12200081F0100081F0100089D
:1000E0001F0100081F0100081F010008DFF810D0E1
:1000F00000F098FA00480047A52C0008AFF30080F4
:10010000D00600200648804706480047FEE7FEE785
:10011000FEE7FEE7FEE7FEE7FEE7FEE7FEE7FEE7B7
:10012000DF1F0008ED000008202A04DB203A21FA36
:1001300002F00021704721FA02F3D040C2F1200200
:100140009140084319467047D2B201E000F8012BF4
:10015000491EFBD270470022F6E710B513460A4647
:1001600004461946FFF7F0FF204610BD2DE9FE4F6B
:1001700081EA030404F0004421F0004100944FF0B0
:10018000000B23F0004350EA01045ED052EA03045E
:100190005BD0C3F30A54C1F30A552C44A4F2F334E0
:1001A0000194A0FB0254C1F3130141F48011C3F385
:1001B000130343F4801301FB024400FB034E840A43
:1001C000970A44EA815447EA8357A4FB07680295DB
:1001D0008D0A05FB07854FEA932C04FB0C54270579
:1001E000029D4FEA065847EA1637B5EB08056EEB55
:1001F000070C870E920E47EA811742EA8312A7FB8B
:100200000201B6EB0B0164EB00042B0D43EA0C3347
:100210005E1844EB1C50DA465146E7FB0201C5F379
:1002200013044FEA0B3343EA14534FEA0432019CA0
:1002300043EA0603A4F10C040294009CCDE900B447
:1002400000F05CF803B0BDE8F08F00200146F9E74C
:1002500030B50B46014600202022012409E021FA96
:1002600002F59D4205D303FA02F5491B04FA02F593
:100270002844151EA2F10102F1DC30BD2DE9F05F2A
:100280000546002092469B46884606468146402405
:100290001BE02846414647462246FFF745FF5346A6
:1002A0005A46C01A914110D311461846224600F012
:1002B000CBF92D1A67EB01084F4622460120002199
:1002C00000F0C2F917EB00094E41201EA4F1010411
:1002D000DFDC484631462A464346BDE8F09F10B56C
:1002E000141E73F1000408DA401C41F10001921859
:1002F0005B411A4301D120F0010010BD2DE9F04D02
:1003000092469B4611B1B1FA81F202E0B0FA80F256
:100310002032904600F098F904460F4640EA0A0061
:1003200041EA0B0153465A46084313D0114653EA9B
:10033000010019D0C8F140025046FFF7F5FE05460E
:100340000E4650465946424600F07EF9084305D015
:10035000012004E020463946BDE8F08D0020054329
:1003600046EAE0762C4337430A986305E40AA0EB9B
:1003700008000022FD0A44EA47540A3002D5002052
:100380000146E9E7010510196941DDE90845001951
:100390006941BDE8F04DA2E72DE9FE4F804681EAB4
:1003A0000300C00F0C46009021F0004123F00045EF
:1003B000B8EB0200A94105D24046214690461C46B2
:1003C0000B46024623F00040104347D0270DC7F3E9
:1003D0000A00C3F30A510290401A019040286BDAD8
:1003E000C3F3130040F4801B0098924620B1002311
:1003F000D2EB030A63EB0B0B01985946C0F14002A4
:10040000504600F021F906460D4650465946019ADD
:1004100000F029F910EB08006141002487EA11522D
:1004200084EAE7731A4340D0009A62B3019A012A22
:100430004FEA075215DC001B61EB02014FF000424E
:1004400002EA0752CDE90042001C41F58011324614
:100450002B46FFF753FF03B0BDE8F08F404621461F
:10046000F9E7001B61EB0201001C41F58013001845
:100470005B412018A2F5001747EB030140EAD57055
:10048000B6196D4111E06D084FEA360645EAC075B0
:100490004FEA0752001B61EB0201001C41F580117D
:1004A00049084FEA30000019514132462B4603B04B
:1004B000BDE8F04FFFF713BF009801224000002372
:1004C000D0EB020263EBE073009821464FEAE07440
:1004D000B8EB000061EB0401E9E783F000435BE760
:1004E00081F0004158E72DE9F04D81EA030404F062
:1004F000004B21F0004514464FF0000A23F0004164
:1005000050EA050220D054EA01021DD0C5F30A5773
:100510000246C5F31303C1F31300C1F30A5640F4B6
:10052000801543F48013A7EB0608101BD64608F28B
:10053000FD3873EB050002D308F1010801E09218C1
:100540005B41B8F1000F03DA00200146BDE8F08DF1
:1005500000204FF48011064684460EE0171B73EB13
:10056000050705D3121B63EB050306434CEA010C98
:1005700049084FEA300092185B4150EA0107EDD17B
:1005800052EA030012D082EA040083EA050108431C
:1005900005D0101BAB4106D20122002306E0002249
:1005A0004FF0004302E06FF0010253101AEB060017
:1005B0004CEB085110EB0A0041EB0B01BDE8F04D8C
:1005C000FFF78DBEC1F30A52C1F3130140F2FF33AE
:1005D00041F480119A4202DA00200146704740F24D
:1005E00033439A42A2F2334202DC5242FFF79CBDEF
:1005F00000F02AB830B5041E71F1000404DB4FF09E
:100600000044404264EB0101141E73F1000405DB59
:100610001C464FF00043524263EB0403994208BF6B
:10062000904230BD064C074D06E0E06840F0010303
:1006300094E8070098471034AC42F6D3FFF75AFD10
:100640000C2D00082C2D0008202A04DB203A00FA8B
:1006500002F1002070479140C2F1200320FA03F319
:10066000194390407047202A06DBCB17203A41FA05
:1006700002F043EAE07306E041FA02F3D040C2F12F
:1006800020029140084319467047000070B50446A7
:1006900000688168C943C90717D1816821F0010149
:1006A000816000F0C1FA05460AE000BF00F0BCFA24
:1006B000401B022804D920688068C043C00706D0C8
:1006C00020688068C043C007F0D0002070BDA06AD9
:1006D00040F01000A062E06A40F00100E0620120FA
:1006E00070BDFEE7704772B6FEE70000F8B5002463
:1006F000009490F824202546012A12D0012280F887
:1007000024204A681F23072A0DD20668776B521EE1
:1007100002EB820293409F430B6893401F43776331
:1007200019E00220F8BD06680D2A0AD2376BD21FE5
:1007300002EB820293409F430B6893401F43376351
:1007400009E0F76A0D3A02EB820293409F430B687F
:1007500093401F43F7620A68072306680A2A0AD3F0
:10076000F7680A3A02EB420293409F438B6893403A
:100770001F43F76008E0376902EB420293409F4352
:100780008B6893401F4337610A68102A01D0112AF1
:1007900020D1124B02689A4217D193681B0219D4D8
:1007A000936843F4000393600968102912D10C493F
:1007B0000C4A0968B1FBF2F101EB8101490000E04C
:1007C000491E00910029FBD104E0816A41F020011B
:1007D0008162012480F824502046F8BD00240140A5
:1007E0001400002040420F002DE9F0414FF00007B7
:1007F00004003D467ED0A06A002628B9E66284F84F
:100800002460204600F07EF82046FFF73FFFA16AF3
:10081000C90600D420B1A06A40F01000A06269E0CF
:10082000A16A21F4885141F00201A1626268E16984
:10083000237B0A4347EA43010A43A1684FF48077C8
:10084000B94209D0012907D05FF0000194F814C023
:10085000BCF1010F02D00AE03946F7E7F3B1A36A11
:1008600043F02003A362E36A43F00103E3622368D9
:10087000D3F804C02CF4694C4CEA010CC3F804C052
:1008800021688B68DFF870C003EA0C0313438B60A8
:10089000A168B9420BD0012909D00CE0DFF85CC097
:1008A000A3690CEB43330B4343F40061DFE7218A78
:1008B0000D05A5F580152168CB6A23F470032B4341
:1008C000CB62216889680E4B1940914208D1E662DB
:1008D000A16A21F0020141F00101A162BDE8F081AD
:1008E000A06A20F0020040F01000A062E06A40F030
:1008F0000100E0620120F1E7FDF7E1FF00E0FFFF0A
:10090000FE0E1FFF00B585B00021009101910291FC
:10091000039100680E49884218D10E48816941F45C
:1009200000718161816901F400710491816941F074
:10093000040181618069694600F00400049001208F
:10094000009003200190044800F078F805B000BD45
:1009500000240140001002400008014010B590F84A
:1009600021100022022905D00421816380F8202073
:10097000012010BD01680B6823F00E030B600168B5
:100980000B6823F001030B6090F84030C46B012129
:1009900001FA03F3636080F8211080F820201046EC
:1009A00010BD000010B590F821100024022903D0DA
:1009B0000421816301243DE001680A6822F00E02EF
:1009C0000A6001680A6822F001020A601A4A016896
:1009D000914201D1012121E0174A1432914201D103
:1009E00010211BE0144A2832914201D1891515E0EB
:1009F000114A3C32914201D189140FE00E4A503223
:100A0000914202D14FF4803108E00B4A64329142A6
:100A100002D14FF4801101E04FF08071064A083A8C
:100A20005160012180F82110002180F82010416BD5
:100A300001B18847204610BD080002402DE9F84F5B
:100A4000DFF8B8910024A9F1040B23460F2709F120
:100A5000040AABF1040EC9E00125A5402A40AA42D0
:100A60007DD1674ED1F804C0ACEB0608B44532D056
:100A700014DCBCF1030F3AD009DCBCF1000F2AD022
:100A8000BCF1010F1CD0BCF1020F31D11DE0BCF153
:100A9000110F17D0BCF1120F2AD119E0B8F5881F39
:100AA00019D006DCB8F5803F15D0B8F5801F1FD1EE
:100AB00011E0B8F5001F0ED0B8F5041F18D10AE0F8
:100AC000CB6815E0CB681B1D12E0CB6808330FE044
:100AD000CB680C330CE08B682BB1012B4FF0080373
:100AE00003D0456104E0042302E0056100E0002337
:100AF000FF2A01D8064601E000F104064FEA84050A
:100B000001D9A5F12005D6F8008007FA05FC28EAEE
:100B10000C0803FA05F548EA0508C6F800804D6898
:100B2000ED0062D5374DAE6946F00106AE61AD69A4
:100B300024F0030605F001050095334D06EB050C86
:100B4000DCF80850A607360F07FA06F825EA08056C
:100B5000DFF8B880404503D14FF0000817E044E0CB
:100B6000DFF8AC80404502D14FF001080FE0DFF81C
:100B7000A480404502D14FF0020808E0DFF89880D9
:100B8000404502D14FF0030801E04FF0040808FA95
:100B900006F848EA0508CCF808804D68D9F80060E6
:100BA000ED024D4601D5164300E096432E604D6898
:100BB000DAF80060AD02554601D5164300E09643D1
:100BC0002E604D68DBF80060AD035D4601D516432D
:100BD00000E096432E604D68DEF80060ED03754638
:100BE00001D5164300E096432E60641C0D682A462A
:100BF000E5407FF431AFBDE8F88F00000804014004
:100C000000001110001002400000014000080140E7
:100C1000000C014000100140001401400AB10161C4
:100C200070470904FBE70000014880687047000036
:100C30000800002070B5040025D094F83D00002580
:100C400020B984F83C50204600F0B8F8242084F8FD
:100C50003D002068016821F0010101602068016801
:100C600041F4004101602068016821F40041016005
:100C700000F0BCFA4D4A6168914201D84C4900E04D
:100C80004C49884201D2012070BD4B492368B0FB1A
:100C9000F1F15E6826F03F060E435E6063689342A2
:100CA00006D94FF4967359434FF47A73B1FBF3F1BD
:100CB0002368491C1E6A26F03F06314319626168A9
:100CC000914210D84900401EB0FBF1F2521CC2F311
:100CD0000B02042A01D2042022E0B0FBF1F0401CF8
:100CE000C0F30B001CE0A268F2B301EBC10303EBFD
:100CF0000116431EB3FBF6F35B1C43F480431B0554
:100D000049D092B301EBC10202EB0111401EB0FBCE
:100D1000F1F0401CC0F30B0040F4804040F4004070
:100D20002168CA694CF6FF739A431043C861D4E93D
:100D3000071001432068026822F0C00211430160DD
:100D4000D4E9030101432068826848F2FF339A43E3
:100D500011438160D4E9050108432168CA6822F083
:100D6000FF021043C86001E00EE016E02068016851
:100D700041F0010101602564202084F83D002563D5
:100D800084F83E50002070BD01EB4106431EB3FBCA
:100D9000F6F35B1CB3E70120C2E701EB4101401E03
:100DA000B0FBF1F0401CC0F30B00B7E7A0860100D8
:100DB00080841E0000093D0040420F0010B586B03F
:100DC0000021009101910291039100680F4988422E
:100DD0001AD10F4CA06940F00800A061A0696946D3
:100DE00000F008000490C020009012200190032021
:100DF00003900848FFF722FEE06940F40010E0612C
:100E0000E06900F40010049006B010BD00540040EA
:100E100000100240000C0140024881680278114431
:100E20008160704708000020074810B5016841F054
:100E300010010160032000F09BF8002000F006F88C
:100E400000F04AF8002010BD0020024030B50546F1
:100E50001C4887B0816941F400618161806906A9FD
:100E600000F40060009001A800F0A0F900F0CEF9B5
:100E70001549164AB0FBF1F11548491E0260416060
:100E800040F2E7320021C0E903218160816100F076
:100E900085FB040012D10E4800F0AEFB04000DD11A
:100EA000192000F037F8102D07D20022294619200A
:100EB00000F03EF80748056000E0012407B0204636
:100EC00030BD00000010024040420F00002C0140E5
:100ED0007C0200200C0000200C4808B5816941F01C
:100EE00001018161816901F001010091C16941F055
:100EF0008051C161C06900F0805000900448416891
:100F000021F0E06141F00071416008BD0010024035
:100F100000000140002809DB00F01F020121914080
:100F20004009800000F1E020C0F800117047000087
:100F3000F0B40E4B1B680C46C3F30223C3F1070544
:100F4000042D00D90425191D072901D2002300E032
:100F5000DB1E012606FA05F1491E214099409E40FC
:100F6000761E16403143F0BC01F02ABA0CED00E0C9
:100F7000064900F0070208684FF6FF03184040EAF0
:100F80000220034A10430860704700000CED00E0A7
:100F90000000FA052DE9F84305460078354CC007F6
:100FA00054D0E0690026C00008D4E06940F08050C9
:100FB000E061E069012600F0805000902E48016851
:100FC000C90512D40168804641F480710160FFF7C1
:100FD0002BFE074605E000BFFFF726FEC01B642876
:100FE00023D8D8F80000C005F6D5206A10F4407068
:100FF00021D0A98801F4407181421CD0206A1F4988
:10100000012220F440700A6000220A602062C007BA
:1010100011D0FFF709FE074641F2883808E000BF0B
:10102000FFF702FEC11B414502D90320BDE8F8834A
:10103000206A8007F4D5206A696820F4407008436C
:1010400020621EB1E06920F08050E06128788007BE
:1010500005D56068A96820F440400843606028789E
:10106000C00605D56068E96820F480000843606028
:101070000020DBE7001002400070004040044242C4
:101080002DE9F0470F46050061D0434E306800F06F
:101090000700B84209D2306820F0070038433060BA
:1010A000306800F00700B84251D128683B4C8107F6
:1010B00012D5400703D5606840F4E060606028788E
:1010C000000703D5606840F4605060606068A968FC
:1010D00020F0F000084360602878C00728D06868D6
:1010E000012810D02168022810D0890700292EDAA3
:1010F000616821F0030101436160FFF795FD8046BF
:1011000041F288390DE021688903EFE78901EDE7B5
:10111000FFF78AFDA0EB0801494502D90320BDE88D
:10112000F0876068696800F00C00B0EB810FEFD1C8
:10113000306800F00700B8420BD9306820F0070093
:1011400038433060306800F00700B84201D0012019
:10115000E5E72878400705D56068E96820F4E06095
:10116000084360602878000706D56068296920F484
:10117000605040EAC100606000F058F86168084AB9
:10118000C1F30311515CC840064908600648006875
:10119000FFF75CFE0020C2E7002002400010024082
:1011A000F22C0008140000200C0000200F22026026
:1011B0000C4A536803F003034360536803F0F003E1
:1011C0008360536803F4E063C36052684FF4E063E4
:1011D00003EAD20202610448006800F007000860D8
:1011E00070470000001002400020024004480549FA
:1011F00000684968044AC1F30221515CC840704745
:101200001400002000100240022D00080448054987
:1012100000684968044AC1F3C221515CC840704764
:101220001400002000100240022D00080E4A5168F0
:101230000E4801F00C03042B11D0082B0FD10C48E1
:10124000C1F38343C903C05C0AD55168084AC1F39E
:101250004041921E515C054A5043B0FBF1F070478B
:1012600004494843704700000010024000127A0011
:10127000E22C000800093D002DE9F84F040070D071
:101280002078C04DC00749D06868C0F381000128AC
:1012900007D06868C0F38100022809D16868C003DC
:1012A00006D52868800339D560680028E7D035E086
:1012B0006068B0F5803F0BD010B1B0F5A02F11D011
:1012C000286820F480302860286820F4802002E01C
:1012D000286840F480302860606890B1FFF7A4FC73
:1012E00006460AE0286840F480202860F0E700BF46
:1012F000FFF79AFC801B642873D828688003F7D511
:101300000CE0FFF791FC064605E000BFFFF78CFC00
:10131000801B6428F0D828688003F7D420789A4E80
:1013200080074FF001094FF0000839D5686810F0C8
:101330000C0F07D06868C0F38100022809D16868E3
:10134000C00306D42868800714D52069012808D175
:1013500010E02069B0B1C6F80090FFF765FC0746C1
:1013600005E00AE1FFF760FCC01B0228C4D828682A
:101370008007F7D52868616920F0F80040EAC100CD
:1013800028600DE0C6F80080FFF74EFC074604E039
:10139000FFF74AFCC01B022823D828688007F7D42F
:1013A000207800072CD57948A169D9B1C0F8009000
:1013B000FFF73AFC074604E0FFF736FCC01B0228A3
:1013C0000FD8686A8007F7D571484FF4FA51006862
:1013D000B0FBF1F0009000BF0098411E0091FAD2DE
:1013E0000EE080E0C0F80080FFF71EFC074604E036
:1013F000FFF71AFCC01B022875D8686A8007F7D46B
:101400002078400760D5E8690027C00008D4E86963
:1014100040F08050E861E869012700F080500090BA
:101420005C480168C90513D40168834641F48071A2
:101430000160FFF7F9FB824606E000BFFFF7F4FB0F
:10144000A0EB0A0064284ED8DBF80000C005F5D5F3
:10145000E06801280AD008B1052813D0286A20F0D6
:1014600001002862286A20F0040002E0286A40F0A7
:1014700001002862E06841F2883B98B1FFF7D4FB95
:1014800082460BE0286A40F004002862EEE700BFC5
:10149000FFF7CAFBA0EB0A0159455AD8286A800712
:1014A000F6D50CE0FFF7C0FB824605E0FFF7BCFB7A
:1014B000A0EB0A0159454CD8286A8007F6D41FB121
:1014C000E86920F08050E861E06988B36968C1F399
:1014D0008101022944D00228C6F8608004D0FFF7B9
:1014E000A3FB044638E034E0FFF79EFB074604E028
:1014F000FFF79AFBC01B02282BD828688001F7D47D
:10150000206AB0F5803F05D16868A16820F40030FA
:1015100008436860D4E908010843696821F474113C
:1015200008436860C6F86090FFF77EFB044606E05B
:1015300025E000BFFFF778FB001B022809D82868C8
:101540008001F7D51BE000BFFFF76EFB001B0228F0
:1015500002D90320BDE8F88F28688001F4D40EE09A
:101560000128F7D06868226A00F48031914204D1E2
:10157000616A00F47010884201D00120EAE700207F
:10158000E8E70000001002400000424280044242AE
:1015900014000020007000407047704710B5040030
:1015A00003D094F83D0010B107E0012010BD0020E9
:1015B00084F83C00204600F01EF8022084F83D002C
:1015C000211D206800F012FD012084F8460084F8F7
:1015D0003E0084F83F0084F8400084F8410084F81D
:1015E000420084F8430084F8440084F8450084F8FD
:1015F0003D00002010BD704790F83D10012901D03A
:1016000001207047022180F83D100168CA6842F04D
:101610000102CA6000680B49884208D0B0F1804FCF
:1016200005D00949884202D00849884204D181681E
:1016300001F00701062903D0016841F001010160B2
:1016400000207047002C01400004004000080040CA
:10165000704770B50446006801694FF00005C94342
:10166000890715D4C168C943890711D4E91E0161EE
:1016700001202077206880698007204602D0FFF78C
:10168000E7FF04E000F098F8204600F096F8257790
:1016900020680169C943490717D4C168C94349078C
:1016A00013D46FF004010161022020772068806963
:1016B00010F4407F204602D0FFF7CAFF04E000F09C
:1016C0007BF8204600F079F8257720680169C94346
:1016D000090716D4C168C943090712D46FF008017D
:1016E0000161042020772068C0698007204602D06D
:1016F000FFF7AEFF04E000F05FF8204600F05DF871
:10170000257720680169C943C90617D4C168C94350
:10171000C90613D46FF010010161082020772068FA
:10172000C06910F4407F204602D0FFF791FF04E02B
:1017300000F042F8204600F040F825772068016963
:10174000C943C90708D1C168C943C90704D1891E63
:101750000161204600F032F820680169C94309069A
:1017600009D4C168C943090605D46FF0800101613D
:101770002046FFF711FF20680169C943490609D4D3
:10178000C168C943490605D46FF040010161204694
:1017900000F01EF820680169C94389060BD4C168AE
:1017A000C943890607D46FF0200101612046BDE8D6
:1017B0007040FFF7F2BE70BD704770470068034984
:1017C000884201D1FFF728BB70470000002C014080
:1017D000704718B5034690F84200202801D0022037
:1017E00018BD61B15AB10120186300205863184632
:1017F00000F01EFD0028F3D1196B012901D0012052
:1018000018BD19680A684968009119680C3151E8D7
:10181000002F42F0100241E80024002CF5D118BD41
:1018200000680A4A904210D10948418001210170A4
:101830004188FF2903D8074A4088002111544FF4FA
:10184000807204490448FFF7C4BF70470038014064
:101850000000002020000020A401002070470000AC
:10186000F8B5016804460868CA684B6910F00F0FA4
:101870004FF0000559D003F0010602F4907737438A
:1018800065D0C10705D0D10503D5616C41F00101D8
:101890006164410705D5D90703D0616C41F00201AD
:1018A0006164810705D5D90703D0616C41F004015B
:1018B0006164010707D502F02001314303D0616C58
:1018C00041F008016164616C00293AD0800604D5BA
:1018D000900602D5204600F0EEFB20684069616C5E
:1018E000C0F38010090700D460B3204600F0BCFBB1
:1018F00020684069400621D52068143050E8001F58
:1019000021F0400140E80012002AF5D1E06BA8B1B7
:101910006D494163E06BFFF745F8002811D0E06B9B
:10192000416B01B0BDE8F040084783060FD5930630
:101930000DD52046BDE8F84000F0BDBB2046FFF7BE
:101940008DFFF8BD2046FFF789FF6564F8BD266B63
:101950002023012E7CD1C6067AD5D60678D5086814
:101960004868009048694FF00206400640D5E16B98
:10197000086840680004000CE8D0A28D8242E5D9D6
:10198000E085886920282DD020680C3050E8001FA1
:1019900021F4807140E80012002AF5D1206814304B
:1019A00050E8001F21F0010140E80012002AF5D1A3
:1019B0002068143050E8001F21F0400140E8001278
:1019C000002AF5D184F84230256320680C3050E8B5
:1019D000001F21F0100140E80012002AF5D1E06B51
:1019E000FEF7BCFF6663A08DE18D401A81B22AE04C
:1019F000A08DE18D401A81B2E08D0028A6D000298B
:101A0000A4D022680C3252E8000F20F4907042E813
:101A10000007002FF5D12068143050E8002F22F085
:101A2000010240E80027002FF5D184F842302563F9
:101A300020680C3050E8002F22F0100240E800230C
:101A4000002BF5D166632046FFF7EAFEF8BDFFE7FD
:101A500005062BD5150629D594F841002128F5D186
:101A6000A068B0F5805F01D12069B0B1206A411C47
:101A70002162216800784860E08C401E0004000C60
:101A8000E084E3D12068C16821F08001C160206852
:101A9000C16841F04001C160D8E7206A0088C0F306
:101AA00008004860206A801C2062E5E74006CDD52A
:101AB0005006CBD5CA68204622F04002CA6084F89E
:101AC000413000F05FF9C1E75920000870B504000B
:101AD00004D094F84100002510B106E0012070BD4B
:101AE00084F84050204600F023F8242084F8410078
:101AF0002068C16821F40051C160204600F03CFB21
:101B00002068016921F4904101612068416921F058
:101B10002A0141612068C16841F40051C1606564D7
:101B2000202084F8410084F842006563002070BDE5
:101B3000F0B585B0002400940194029403940368E6
:101B4000384F022038490322384D4602BB4228D183
:101B50008B6943F480438B618B6903F48043049366
:101B60008B6943F004038B618969039201F00401DE
:101B700004910102CDE9001069462846FEF75EFF98
:101B8000CDE90064694628460294FEF757FF00221B
:101B900001212520FFF7CCF92520FFF7BBF905B07F
:101BA000F0BD234FBB4219D1CB6943F40033CB6165
:101BB000CB6903F4003304938B6943F004038B6116
:101BC0008969039201F0040104910421CDE9001018
:101BD00069462846FEF732FF08201BE0154DAB4250
:101BE000DDD1CB6943F48023CB61CB6903F480233F
:101BF00004938B6943F008038B6189690E4D01F0F2
:101C00000801CDE90321CDE9006069462846FEF7C9
:101C100015FFE814CDE90004694628460294FEF752
:101C20000DFFBCE7003801400010024000080140F1
:101C30000044004000480040000C01402DE9F843FA
:101C4000044690F84200994616460D46202802D0D8
:101C50000220BDE8F883ADB1A6B100206064222166
:101C600084F842102063FEF7DFFFA6858046E685F4
:101C7000A0684FF48057B84201D1206920B12E46A8
:101C8000002526E00120E4E7002622E0434600226A
:101C900020212046CDF8009000F0E5FA08B103209D
:101CA000D7E726B1A068B8421BD038B108E0206859
:101CB0004068C0F3080025F8020B07E0206980B1F6
:101CC0002068406800F07F0006F8010BE08D401EA0
:101CD000E085E08D0028D9D1202084F84200002042
:101CE000B7E720684068EFE770472DE9F8430446FE
:101CF00090F841001F4616460D46202802D00220CB
:101D0000BDE8F8837DB176B100206064212084F8BD
:101D10004100FEF789FFA6848046E684A068B0F5FE
:101D2000805F02D003E00120EAE7206910B12E466F
:101D300000250EE000260CE08021204600F093FAFA
:101D4000A0B9AEB116F8010B21684860E08C401EC6
:101D5000E084E08C43464FF0000200970028EBD16E
:101D60004FF04001204600F07EFA30B10320C7E773
:101D700035F8020BC0F30800E6E7202084F84100A4
:101D80000020BDE77047FEE73EB5002411480094EF
:101D9000019402940E498460016001250573047565
:101DA00005614FF460214460C161FEF71DFD08B17B
:101DB000FEF799FC07200094CDE9015069460548DB
:101DC000FEF794FC002801D0FEF78DFC3EBD00001C
:101DD000002401402001002070B586B00024234873
:101DE0000094019402940394816941F0100181618F
:101DF000816901F010010491816941F02001816144
:101E0000816901F020010491816941F0040181613F
:101E1000816901F004010491816941F00801816147
:101E20008069134E00F00800049001220221304620
:101E3000FEF7F4FE002210213046FEF7EFFE0225E9
:101E400011200095CDE90104032003906946304636
:101E5000FEF7F4FD1020009001AA012082E8310075
:101E600069463046FEF7EAFD06B070BD001002403C
:101E7000000801400D4810B50B4901600C49416054
:101E800000214FF480428160C0E903124161816109
:101E9000C1610162FEF7CEFE002803D0BDE810400C
:101EA000FEF721BC10BD000000540040500100208E
:101EB000A08601000C4810B50A4901604FF4E131D9
:101EC0004160002181600C22C160C0E9041281617F
:101ED000C161FFF7FBFD002803D0BDE81040FEF70D
:101EE00002BC10BD00380140A40100200C4810B510
:101EF0000A4901604FF4E1314160002181600C2208
:101F0000C160C0E904128161C161FFF7DFFD0028F3
:101F100003D0BDE81040FEF7E6BB10BD0044004012
:101F2000EC0100200C4810B50A4901604FF416512D
:101F30004160002181600C22C160C0E9041281610E
:101F4000C161FFF7C3FD002803D0BDE81040FEF7D4
:101F5000CABB10BD0048004034020020FEE7FEE787
:101F600070477047704730B593B028216846FEF738
:101F7000F2F814210AA8FEF7EEF8002501200F95CB
:101F800010951195010412958DE8230004904FF4EB
:101F9000E010CDE90810022407946846FFF76CF9B9
:101FA00008B172B6FEE70AA90F2081E831004FF4AC
:101FB0008060CDE90D0502210AA8FFF761F808B19C
:101FC00072B6FEE74FF4004011900F940FA8FEF791
:101FD000E1FF002801D072B6FEE713B030BD7047B4
:101FE0000148FFF736BB00007C020020F0B5026814
:101FF000164B174C174D4FF08047984205D0B8420A
:1020000003D0A04201D0A84203D122F070064A6852
:102010003243984205D0B84203D0A04201D0A84232
:1020200003D122F44074CA6822434C6922F0800232
:10203000224302608A68C2620A688262984201D1C1
:102040000969016301214161F0BD0000002C0140DC
:10205000000400400008004010B5406A0021C1851E
:10206000C184FFF7FBFB10BD01680C3151E8002F64
:1020700022F4907241E80023002BF5D1016814315D
:1020800051E8002F22F0010241E80023002BF5D196
:10209000016B012909D101680C3151E8002F22F0B0
:1020A000100241E80023002BF5D1202180F84210D6
:1020B00000210163704708B590F84210222901D031
:1020C000022008BD82684FF480539A4201D1016911
:1020D00021B1816A9A421BD04AB10AE00268816A42
:1020E0005268C2F308020A80816A891C08E002690A
:1020F00072B10268526802F07F020A70816A491C5C
:102100008162C18D491E0904090CC18503D01BE001
:1021100002685268F1E70168CA6822F02002CA60CA
:102120000168CA6822F48072CA6001684A6922F0B4
:1021300001024A61202180F8421000214163026BB4
:10214000012A03D0FFF7D0FD002008BD016301681C
:102150000C3151E8002F22F0100241E80023002B3F
:10216000F5D101680A68D20602D50A68496800916B
:10217000818DFFF755FBE7E770B5044600680169FC
:10218000E26821F44051114301612169A0680843CC
:10219000616908432168CA6841F20C639A430243AB
:1021A000CA6020684169A26921F44071114341610C
:1021B0001E492068884202D1FFF728F801E0FFF7A6
:1021C00015F800EBC00101EB00126068642180008B
:1021D000B2FBF0F3B3FBF1F36FF018067343B2FBFD
:1021E000F0F5B2FBF0F605EB8305322303EB0515A2
:1021F000B5FBF1F5B6FBF1F605F0F00505EB0615BC
:10220000B2FBF0F6B2FBF0F0B0FBF1F06FF01802A9
:10221000504306EB800003EB0010B0FBF1F02168A7
:1022200000F00F002844886070BD000000380140B5
:1022300081628285C28500214164222180F842109A
:10224000016921B10168CA6842F48072CA600168FC
:102250004A6942F001024A610068C16841F0200108
:10226000C160002070472DE9F041984617460E46A0
:102270000446069D27E0681C25D02DB1FEF7D4FC4E
:10228000A0EB0800A8421ED920680C3050E8001FBF
:1022900021F4D07140E80012002AF5D120681430F2
:1022A00050E8001F21F0010140E80012002AF5D19A
:1022B000202084F8410084F84200002084F8400087
:1022C0000320BDE8F0812068006836EA000004D0F1
:1022D0000020B842CFD00020F3E70120F9E700004A
:1022E0000148FFF7BDBA0000A4010020FEE700008E
:1022F00038B500248DF80040642301226946154852
:10230000FFF79CFC144920B1032801D14C700C70DC
:1023100038BD4878114B012288B10128F8D10878DE
:102320009DF800501D54401CC0B208700928EFD31E
:102330008A704C700C700AA000F032F838BD9DF81D
:1023400000402C2CFAD108781C544A70401C0870AC
:102350000AA0F1E73402002018000020C402002087
:1023600039D7D6BDDACAFDBEDDBDD3CAD5CDEAB3F5
:10237000C9A3ACBFC9BDE2CEF60D0A00BCECB2E207
:10238000B5BDD6A1CDB730783243A3ACBFAACABC85
:10239000BDD3CAD5BAF3D0F8CAFDBEDD0D0A000020
:1023A0000FB4054B10B503A9044A029800F0EAF8EF
:1023B00010BC5DF814FB00008D2C00081C000020F0
:1023C0000907090E002804DB00F1E02080F8001462
:1023D000704700F00F0000F1E02080F8141D7047F6
:1023E00002E008C8121F08C1002AFAD170477047DE
:1023F000002001E001C1121F002AFBD1704700003C
:102400002DE9FF5F82B00021DDE90430020DDDF827
:1024100040B0034318D044F61050A2F2FF324243BA
:102420001514119801281FD0A5EB0B00401C5FEA82
:10243000000A4FF000064E4FDFF83891B046504684
:1024400015D5CAF1000413E0119801244AA301280C
:1024500001D16FEA0B010298119AC0E90031C0E97D
:10246000024206B0BDE8F09FCBF10000DFE7044672
:102470000021404A491842EB0450CDE9001012E017
:10248000E00707D032463B4640464946FDF76EFE20
:102490008046894632463B4610461946FDF766FEA1
:1024A00006460F466410002CEAD1DDE90401DDE99F
:1024B0000023BAF1000F06DAFDF758FE42464B46FC
:1024C000FDF754FE05E0FEF70EF842464B46FEF7D8
:1024D0000AF804460E460022284BFEF78BF803D874
:1024E0004FF0FF30014607E00022254B20463146E1
:1024F000FDF752FFFEF766F8102409E0002C0ADB16
:102500000A220023FDF7BAFE039B30321A55641EDF
:1025100050EA0102F2D1641C039AC4F1110314447D
:10252000119A012A03D0012208430DD10AE0084381
:1025300004D000204FF0110B119072E7A3EB0B05B4
:102540006D1E0DE05B4504DD4FF0000205F1010555
:1025500004E003DA4FF00002A5F10105002AECD0F7
:1025600002981199C0E90231C0E9004579E70000FD
:10257000000014400000F03F300000000000F04375
:102580000000E03F2DE9FF4F95B09A468846064689
:102590000025EEE1252877D100242746F94A0121BC
:1025A000039400E0044316F8013F203B01FA03F0D6
:1025B0001042F7D130782A2811D06FF02F033078ED
:1025C000A0F13002092A16D8039A44F0020402EB63
:1025D000820203EB42021044761C0390EFE758F8A6
:1025E000042B0392002A03DA504244F4005403906F
:1025F00044F00204761C30782E2816D116F8010F0C
:1026000044F004042A280DD06FF02F023078A0F196
:102610003003092B09D807EB870302EB4303C718E4
:10262000761CF3E758F8047B761C30786C280FD0C2
:1026300006DC4C2817D068280DD06A2814D104E095
:10264000742810D07A280FD10DE044F400140AE069
:1026500044F4801401E044F440147278824202D1C0
:1026600004F58014761C761C307866280BD013DCB9
:10267000582877D009DC002875D04528F6D04628A0
:10268000F4D047281AD193E118E0632835D06428A4
:1026900079D0652812D18BE1702873D008DC6728C7
:1026A000F1D069286FD06E280DD06F2806D1ACE02C
:1026B00073282CD0752874D0782853D05246179997
:1026C00090476D1C54E1C4F30250022809D003283E
:1026D0000DD0D8F8001004280DD00D6008F10408C2
:1026E00046E1D8F80010EA17C1E90052F6E7D8F839
:1026F00000100D80F2E70D70F0E718F8041B8DF85C
:10270000001000208DF80100EB46012003E058F88E
:1027100004BB4FF0FF3061074FF0000102D40DE021
:1027200009F101018946B9420FDA8145F8DB1BF84E
:1027300009100029F4D108E009F10101894681421C
:10274000FADB1BF809100029F6D103985346A0EBD9
:10275000090721463846179A00F080FA284400EB12
:10276000090507E044E008E10DE01BF8010B5246C3
:1027700017999047B9F10109F7D2534621463846D7
:10278000179AF2E039E00A21C4F302524FF0000B2D
:102790000091022A06D058F8040BC117032A09D069
:1027A0000AE023E008F1070020F00702F2E8020146
:1027B000904605E000B2C117042A01D140B2C1170A
:1027C000002906DA0A460021404261EB02012D226F
:1027D00002E0220504D52B228DF80420012203E01B
:1027E000E20701D02022F7E7914657E00A2100E0F6
:1027F00010214FF0000B00910BE010214FF0000B67
:1028000044F004040827009103E008204FF0000B77
:102810000090C4F30252022A05D058F8040B00219C
:10282000032A08D008E008F1070020F00702F2E8C8
:102830000201904603E080B2042A00D1C0B24FF0FA
:10284000000922072AD53278702A07D0DDF800C0A7
:102850008CF0100C5CEA0B0C05D00EE040228DF8D9
:102860000420012208E050EA010306D030238DF84D
:1028700004308DF8052002229146009B83F0080366
:1028800053EA0B030AD150EA010201D1620705D5D0
:1028900030228DF804204FF001097F1E3278582A2B
:1028A00004D039A20C920CAA02920BE03BA2F9E7E9
:1028B0005B46009AFDF7E2FC0C9B9B5C029A521E61
:1028C0000292137050EA0102F2D1029804A9081A88
:1028D00000F1200B600702D524F4803400E00127CA
:1028E0005F4502DDA7EB0B0000E0002000EB0B01D1
:1028F000009003984944401A0390E00306D45346DD
:102900002146179A039800F0A9F90544002706E02C
:1029100001A85246C05D179990476D1C7F1C4F451A
:10292000F6DBE0030CD553462146179A039800F0D6
:1029300095F9054404E030205246179990476D1CE4
:102940000099481E00900029F5DC08E002980299E1
:1029500052460078491C0291179990476D1CBBF1B3
:102960000001ABF1010BF1DC5BE100F065F905441E
:10297000761C307800287FF40DAE19B02846BDE8EB
:10298000F08F0000092801003031323334353637FA
:1029900038396162636465660000000030313233AB
:1029A000343536373839414243444546000000004B
:1029B000600700D4062708F1070020F00700F0E8C0
:1029C0000223804603F0004C5FEA0C0001D097A080
:1029D00009E0200501D596A005E0E00701D095A00B
:1029E00001E0AFF24C001390307823F000436528EB
:1029F0000CD006DC452809D046281DD047287FD1B9
:102A00003BE0662818D067287AD136E00021112FE4
:102A100001DB112000E0781CCDE9000104A90CA81D
:102A2000FFF7EEFCDDE90D010C9A4FF0000B07F10A
:102A30000109109200914EE04FF000400097CDE95F
:102A4000011004A90CA8FFF7DBFCDDE90D020C9BCB
:102A50000F994FF0000B91461093009211B9791C19
:102A600000EB0109B7EB090003D4C0F1FF3B07F10C
:102A70000109A9EB0700019042E0012F00DA0127CC
:102A80000021112F01DD112000E03846CDE90001C1
:102A900004A90CA8FFF7B4FCDDE90D010C9A009124
:102AA0004FF0000BB946109221070FD4009A4A4507
:102AB00003DA914601E0A9F10109B9F1010F05DD41
:102AC000109AA9F10101515C3029F4D0B84202DA20
:102AD00010F1040F03DA0121CDE9011010E0002804
:102AE00003DC8344A9EB000102E0411C494500DD01
:102AF0008946A0EB0B00401C01904FF00040029073
:102B0000200705D40198484502DB4FF0FF300190C3
:102B100000208DF84B0002980DF14B07B0F1004FEB
:102B200025D002200C902B200D90029800280CDA62
:102B3000404202902D200D9007E00A210298FDF7F7
:102B400087FB3031029007F8011D0C99481E0C904C
:102B50000029F2DC02980028EFD1791E0D98087048
:102B6000307800F0200040F0450007F8020D11A871
:102B7000C01BC01D02901398007800B1012000EB2B
:102B80000901019801EBE071029801440398401A91
:102B9000401E0390E00306D453462146179A03983B
:102BA00000F05CF805441398007818B15246179964
:102BB00090476D1CE00323D553462146179A03988E
:102BC00000F04CF805441BE0BBF1000F07DB009858
:102BD000584504DD1098179910F80B0001E017997B
:102BE00030205246904701980BF1010B401E05F131
:102BF0000105019004D12E205246179990476D1C73
:102C0000B9F10001A9F10109DEDC05E017F8010BBB
:102C10005246179990476D1C0299481E0290002950
:102C2000F4DC53462146179A03989EE62D000000D7
:102C30002B000000200000002DE9F0410446002593
:102C40001E461746880404D405E039462020B047C4
:102C50006D1C641EF9D52846BDE8F0812DE9F041D0
:102C6000044600251E469046C80301D5302700E0E3
:102C70002027880404D505E041463846B0476D1C3E
:102C8000641EF9D52846BDE8F081000013B50A237B
:102C9000012269460248FFF728F800981CBD000091
:102CA000EC010020FEF7C0F8FFF75DF9FFF794F89C
:102CB000FFF76AF8FFF7FEF8FFF718F9FFF732F9A8
:102CC000FFF7D8F802A0FFF76BFBFFF711FBFEE759
:102CD00048656C6C6F20576F726C640A00000000CE
:102CE000010202030405060708090A0B0C0D0E0F6A
:102CF000101000000000000000000102030406079D
:102D00000809000000000102030400002C2D000847
:102D10000000002020000000E02300084C2D0008E7
:102D200020000020B0060000F02300080000000092
:102D30000000000001000000100000000000000082
:0C2D40000024F40000000000000000006F
:04000005080000ED02
:00000001FF
